:020000040800F2
:10000000280400209D01000861030008C5020008C3
:100010005D030008E5010008210A00080000000057
:100020000000000000000000000000007D05000846
:10003000E901000800000000310400086D06000816
:10004000B7010008B7010008B7010008B7010008B0
:10005000B7010008B7010008B7010008B7010008A0
:10006000B7010008B7010008B7010008B701000890
:10007000B7010008B7010008B7010008B701000880
:10008000B7010008B7010008B7010008B701000870
:10009000B7010008B7010008B7010008B701000860
:1000A000B7010008B7010008B7010008B701000850
:1000B00045070008B7010008B7010008B7010008AC
:1000C000B7010008B7010008B7010008B701000830
:1000D000B7010008B7010008B7010008B701000820
:1000E000B7010008B7010008B7010008B701000810
:1000F000B7010008B7010008B7010008B701000800
:10010000B7010008B7010008B7010008B7010008EF
:10011000B7010008B7010008B7010008B7010008DF
:10012000B7010008B7010008B7010008B7010008CF
:10013000B7010008B7010008B7010008B7010008BF
:10014000B7010008B7010008B7010008B7010008AF
:10015000B7010008B7010008B7010008B70100089F
:10016000B7010008B7010008B7010008B70100088F
:10017000B7010008B7010008B7010008B70100087F
:10018000B7010008B7010008DFF80CD000F018F83C
:10019000004800475D0A0008280400200648804700
:1001A00006480047FEE7FEE7FEE7FEE7FEE7FEE75C
:1001B000FEE7FEE7FEE7FEE7DD060008890100082E
:1001C000064C074D06E0E06840F0010394E80700A4
:1001D00098471034AC42F6D3FFF7DAFF380C00082A
:1001E000580C000800BFFEE77047F0B50A46002132
:1001F0000023002400BF3DE0012505FA01F3156846
:1002000005EA03049C4234D105684F000326BE4032
:10021000B543056015794E00B54006683543056065
:100220001579012D02D01579022D16D185684F0060
:100230000326BE40B543856055794E00B5408668BB
:1002400035438560456801268E40B5434560456865
:1002500096798E40B6B235434560C5684F00032697
:10026000BE40B543C560D5794E00B540C66835433C
:10027000C560491C1029BFD3F0BDF0B50023002490
:100280004D07ED0E02FA05F3CE1000F1200555F8EA
:1002900026504E07F70E0F26BE40B543CF1000F193
:1002A000200646F82750CE1000F1200555F82650BC
:1002B00045EA0304CE1000F1200545F82640F0BDC4
:1002C0004183704700BFFEE71CB50121892000F083
:1002D000B1F84020009001208DF8040000208DF836
:1002E000060001208DF8070000208DF80500694602
:1002F0001748FFF77AFF4FF40060009069461548F1
:10030000FFF773FF4FF48050009069461148FFF7E4
:100310006CFF4FF40060009069460F48FFF765FFDF
:1003200040200B49088340010A49183108804000E9
:10033000088041100848FFF7C3FF40200449488364
:100340004001044918310880400008801CBD0000AD
:1003500000000240001C0240000C024000BFFEE70B
:10036000704708B54FF4A06000F058F825208DF8CC
:10037000000002208DF801008DF8020001208DF8A8
:100380000300684600F00EF826208DF800000120DA
:100390008DF801008DF802008DF80300684600F02A
:1003A00001F808BD70B5002100230F22C4781CB3EA
:1003B000174C246804F4E064C4F5E064C4F3072136
:1003C000C1F10404E3B20A4144789C40E1B284786C
:1003D000144021430C07210E0E4C0578615504781A
:1003E00004F01F050124AC4005786D11AD0005F146
:1003F000E025C5F8004109E0047804F01F05012458
:10040000AC40054D0678761145F8264070BD0000D9
:100410000CED00E000E400E080E100E0024901436F
:10042000024A1160704700000000FA050CED00E080
:100430007047000029B1064A12680243044B1A6053
:1004400004E0034A12688243014B1A6070470000BF
:100450003038024029B1064A12680243044B1A6040
:1004600004E0034A12688243014B1A60704700009F
:100470004038024029B1064A12680243044B1A6010
:1004800004E0034A12688243014B1A60704700007F
:1004900044380240F0B50021002200240225002645
:1004A0000223324F3F6807F00C0121B1042905D027
:1004B000082937D105E02E4F076036E02D4F076041
:1004C00033E02A4F3F1F3F68C7F38056274F3F1F37
:1004D0003F6807F03F036EB1264FB7FBF3F7DFF835
:1004E0008CC0ACF1040CDCF800C0CCF3881C07FB1A
:1004F0000CF40CE01E4FB7FBF3F7DFF870C0ACF163
:10050000040CDCF800C0CCF3881C07FB0CF4174F7C
:100510003F1F3F68C7F301477F1C7D00B4FBF5F721
:10052000076002E0124F076000BF00BF0F4F3F6837
:1005300007F0F0010909104F7A5C0768D74047605F
:100540000A4F3F6807F4E051890A0B4F7A5C47680D
:10055000D7408760054F3F6807F46041490B064F5D
:100560007A5C4768D740C760F0BD00000838024099
:100570000024F40000127A001400002070470000EC
:100580000CB50020019000903448006840F48030A1
:100590003249086000BF3148006800F40030009024
:1005A0000198401C0190009818B90198B0F5A04F2F
:1005B000F1D12A48006800F4003010B10120009009
:1005C00001E0002000900098012846D123484030E7
:1005D000006840F0805021494031086020480068A0
:1005E00040F440401E4908601C48083000681B4920
:1005F000083108600846006840F40040086008467A
:10060000006840F4A05008601648091F0860081FE1
:10061000006840F08070091F086000BF0F48006844
:1006200000F000700028F9D040F205700E49086013
:100630000A480830006820F00300084908310860C3
:100640000846006840F00200086000BF0348083018
:10065000006800F00C000828F8D10CBD00380240FA
:100660000070004008544007003C024010B500F004
:1006700015FA10BD30B5164800684FF47A72B0FB19
:10068000F2F1481EB0F1807F01D301201BE0481E2B
:100690004FF0E022506150170F22002807DA1307AD
:1006A0001D0E0C4B00F00F04241F1D5503E0130713
:1006B0001C0E094B1C5400BF00204FF0E02290613B
:1006C00007201061002008B100BFFEE730BD000028
:1006D0000000002018ED00E000E400E010B515482F
:1006E000006840F47000134908601348006840F047
:1006F00001001149086000200F49083108600E48C8
:1007000000680E4908400C4908600D48091D086042
:10071000081F006820F48020091F08600020064997
:100720000C310860FFF72CFF4FF000600149803961
:10073000086010BD88ED00E000380240FFFFF6FEC3
:100740001030002410B50121880700F021F848B1CD
:100750000548406980F0400003494861012188074D
:1007600000F007F810BD000000000240CA430282FA
:100770007047CA430282704721B1028842F00102E9
:10078000028004E002884FF6FE731A400280704730
:1007900030B50246002000230024158A05EA010333
:1007A000958905EA010413B10CB1012000E0002095
:1007B00030BD1AB183890B43838102E083898B4367
:1007C000838170470EB501210846FFF743FE42F2D0
:1007D0000F70019042F2CF00ADF800000020ADF89C
:1007E0000800ADF8020069464FF0804000F00EF8B6
:1007F00001218807FFF7BAFF012211469007FFF792
:10080000D8FF01218807FFF7B7FF0EBD002202883D
:10081000184B98420ED0184B98420BD0B0F1804F35
:1008200008D0164B984205D0154B984202D0154B74
:10083000984204D14FF68F731A404B881A43124BDB
:10084000984207D0114B984204D04FF6FF431A400C
:100850000B891A4302804B68C3620B880385054BE2
:10086000984202D0044B984201D18B7A038601232F
:1008700083827047000001400004014000040040F2
:1008800000080040000C0040001000400014004030
:1008900010B500F003F8FFF795FF10BD08B54FF451
:1008A000E060FFF7BBFD1C208DF8000000208DF8F4
:1008B000010003208DF8020001208DF80300684636
:1008C000FFF770FD08BD21B1828942F40052828198
:1008D00004E082894DF6FF731A4082817047024618
:1008E0000020B1F5007F00D100BF13880B400BB191
:1008F000012000E000207047F0B5034600240026E8
:100900000025002040F66A17B94200D100BF184602
:10091000C1F3421401F01F06012707FA06F5012C66
:1009200001D10C3004E0022C01D1103000E0143071
:100930001AB107682F43076002E00768AF430760FA
:10094000F0BD00002DE9FF4705460E460024A146F4
:1009500000BFA046B08900B100BF2C8A24F44054E7
:10096000F08804432C82AC8941F20C608443B08847
:1009700031890843718908430443AC81AC8A24F46B
:100980004074B0890443AC826846FFF783FD204879
:10099000854202D01F48854202D1DDF80C9001E06B
:1009A000DDF80890A88900F4004040B109EBC900C7
:1009B00000EB091031684900B0FBF1F707E009EBE3
:1009C000C90000EB091031688900B0FBF1F7642021
:1009D000B7FBF0F004012009642101FB1078A8891D
:1009E00000F4004040B1322000EBC800B0FBF1F051
:1009F00000F00700044308E0322000EB08106421F7
:100A0000B0FBF1F000F00F0004432C81BDE8FF873C
:100A10000010014000140140C1F3080282807047B9
:100A200000BFFEE702E008C8121F08C1002AFAD181
:100A300070477047002001E001C1121F002AFBD15E
:100A40007047000001B504490098086000BF0248E3
:100A500000680028FBD108BD24000020FFF70AFE33
:100A6000FFF732FCFFF714FF00F024F808E0102233
:100A700004A1094800F0CFF84FF47A70FFF7E2FFC5
:100A8000F5E700007468697320697320612074655C
:100A900073740D0A00000000001001400448006853
:100AA00020B103480068401E0149086070470000FB
:100AB0002400002000B587B001210846FFF7BAFCEA
:100AC00001211020FFF7D6FC00208DF81A0001202C
:100AD0008DF81B0002208DF819008DF81800000217
:100AE000059005A94048FFF780FB02208DF818000B
:100AF0004002059005A93C48FFF777FB07220A2131
:100B00003948FFF7BAFB072209213748FFF7B5FB41
:100B10004FF4E13001900020ADF80800ADF80A0074
:100B2000ADF80C00ADF810000C20ADF80E0001A9D6
:100B30002E48FFF707FF012240F225512B48FFF70F
:100B4000DBFE01212948FFF7BEFE01210820FFF747
:100B500071FC01214804FFF77DFC0722062124488F
:100B6000FFF78BFB072205212148FFF786FB0020BA
:100B70008DF81A0001208DF81B0002208DF8180056
:100B80002020059002208DF8190005A91848FFF7CC
:100B90002CFB02208DF818004020059005A9144870
:100BA000FFF723FB4FF4E13001900020ADF808007F
:100BB000ADF80A00ADF80C00ADF810000C20ADF84F
:100BC0000E0001A90B48FFF7BDFEFFF7CAFB01228B
:100BD00040F225510748FFF78FFE01210548FFF736
:100BE00072FE07B000BD000000000240001001408E
:100BF000000C02400044004070B504460D462946F2
:100C00002046FFF709FF00BF80212046FFF767FE5F
:100C10000028F9D070BD70B506460C46154604E0B4
:100C200014F8011B3046FFF7E7FF281EA5F101016C
:100C3000CDB2F5D170BD0000580C000800000020B6
:100C400028000000240A0008800C0008280000206A
:100C500000040000340A0008007A030A00000000C3
:100C6000000000000102030406070809000000005C
:100C70000102030401020304060708090000000042
:040000050800018965
:00000001FF
