:020000040800F2
:10000000280700209D010008AD0500081105000823
:10001000A9050008F30300086D0F000800000000A8
:10002000000000000000000000000000E9080008D7
:1000300035040008000000007D060008D90900080A
:10004000B7010008B7010008B7010008B7010008B0
:10005000B7010008B7010008B7010008B7010008A0
:10006000B7010008B7010008B7010008B701000890
:10007000B7010008B7010008B7010008B701000880
:10008000B7010008B7010008B7010008B701000870
:10009000B7010008B7010008B7010008B701000860
:1000A000B7010008B7010008B7010008B701000850
:1000B000B10A0008B7010008B7010008B70100083D
:1000C000B7010008B7010008B7010008B701000830
:1000D000B7010008AD0C0008210D0008B7010008A9
:1000E000B7010008B7010008B7010008B701000810
:1000F000B7010008B7010008B7010008B701000800
:10010000B7010008ED070008B7010008B7010008B3
:10011000B7010008B7010008B7010008B7010008DF
:10012000B7010008B7010008B7010008F70300088D
:10013000B7010008B7010008B7010008B7010008BF
:10014000B7010008B7010008B7010008B7010008AF
:10015000B7010008B7010008B7010008B70100089F
:10016000B7010008B7010008B7010008B70100088F
:10017000B7010008B7010008B7010008B70100087F
:10018000B7010008B7010008DFF80CD000F0BEF896
:1001900000480047851600082807002006488047C9
:1001A00006480047FEE7FEE7FEE7FEE7FEE7FEE75C
:1001B000FEE7FEE7FEE7FEE7490A000889010008BE
:1001C00040EA01039B0703D009E008C9121F08C0D9
:1001D000042AFAD203E011F8013B00F8013B521E59
:1001E000F9D27047D2B201E000F8012B491EFBD2D0
:1001F00070470022F6E710B513460A460446194632
:10020000FFF7F0FF204610BD30B505462A460B46E5
:1002100012F8010B13F8014B08B1A042F8D01CB141
:10022000002802D06D1CF1E7284630BD421C10F8B2
:10023000011B0029FBD1801A704730B5044600200D
:10024000034600E05B1C934203D2E05CCD5C401BA4
:10025000F8D030BD70B5064600F09AFE0468054639
:100260000A220021304600F018F82C6070BD30B52D
:100270000B46014600202022012409E021FA02F564
:100280009D4205D303FA02F5491B04FA02F52844FE
:10029000151EA2F10102F1DC30BD2DE9F0479146B7
:1002A0000F4680460446002614F8015B2DB100F08D
:1002B0003FF80068405DC007F6D12B2D02D02D2DF0
:1002C00018D0641E4A463946204600F035F827B15A
:1002D0003968A14201D1C7F8008071054FF00204CE
:1002E0000BD54042002803DD00F052FE0460A00759
:1002F000BDE8F08746F48066E4E70028F8DA00F00D
:1003000047FE04606FF00040F2E70000064C074D26
:1003100006E0E06840F0010394E8070098471034D5
:10032000AC42F6D3FFF734FFF41A0008141B0008A0
:1003300000487047F01A00082DE9F05F8246007807
:10034000002715468B460AF10104B946302801D032
:100350009DB113E014F8010B0127782803D0582829
:1003600001D045B10AE00DB1102D07D100271025AD
:1003700014F8010B02E0082500E00A250026B0462B
:100380000EE005FB080005FB06F1012701EB104616
:100390001FFA80F8B6F5803F00D3B94614F8010B78
:1003A000294600F018F80028EBDABBF1000F05D061
:1003B0000FB1641E00E05446CBF80040B9F1000FC5
:1003C00006D000F0E5FD02210160C81EBDE8F09FE7
:1003D00048EA0640FAE73A2800D2303820F02002F6
:1003E000412A01D3A2F13700884201D34FF0FF30F8
:1003F000704700BFFEE710B500F00CFA10BD00001A
:100400000246094B9A4201D2084801E006481038DA
:1004100001F000531BB1064B0B40C36002E0044BDC
:100420000B4083607047000010640240006002408F
:100430007D0F7D0F7047F0B50A4600210023002490
:1004400000BF3DE0012505FA01F3156805EA030444
:100450009C4234D105684F000326BE40B543056079
:1004600015794E00B5400668354305601579012DB4
:1004700002D01579022D16D185684F000326BE40A3
:10048000B543856055794E00B54086683543856033
:10049000456801268E40B5434560456896798E4093
:1004A000B6B235434560C5684F000326BE40B5432C
:1004B000C560D5794E00B540C6683543C560491C56
:1004C0001029BFD3F0BDF0B5002300244D07ED0E79
:1004D00002FA05F3CE1000F1200555F826504E071C
:1004E000F70E0F26BE40B543CF1000F1200646F8A8
:1004F0002750CE1000F1200555F8265045EA030498
:10050000CE1000F1200545F82640F0BD418370472C
:1005100000BFFEE71CB50121892000F0B1F84020A2
:10052000009001208DF8040000208DF806000120C5
:100530008DF8070000208DF8050069461748FFF781
:100540007AFF4FF40060009069461548FFF773FF8B
:100550004FF48050009069461148FFF76CFF4FF44C
:100560000060009069460F48FFF765FF40200B4987
:10057000088340010A491831088040000880411072
:100580000848FFF7C3FF402004494883400104495D
:1005900018310880400008801CBD000000000240A7
:1005A000001C0240000C024000BFFEE7704708B587
:1005B0004FF4A06000F058F825208DF800000220CC
:1005C0008DF801008DF8020001208DF803006846C7
:1005D00000F00EF826208DF8000001208DF80100B3
:1005E0008DF802008DF80300684600F001F808BDA0
:1005F00070B5002100230F22C4781CB3174C246867
:1006000004F4E064C4F5E064C4F30721C1F1040418
:10061000E3B20A4144789C40E1B28478144021431B
:100620000C07210E0E4C05786155047804F01F0567
:100630000124AC4005786D11AD0005F1E025C5F849
:10064000004109E0047804F01F050124AC40054D89
:100650000678761145F8264070BD00000CED00E0EC
:1006600000E400E080E100E002490143024A116039
:10067000704700000000FA050CED00E07047000034
:1006800029B1064A12680243044B1A6004E0034A87
:1006900012688243014B1A607047000030380240F4
:1006A00029B1064A12680243044B1A6004E0034A67
:1006B00012688243014B1A607047000040380240C4
:1006C00029B1064A12680243044B1A6004E0034A47
:1006D00012688243014B1A607047000044380240A0
:1006E000F0B5002100220024022500260223324F0B
:1006F0003F6807F00C0121B1042905D0082937D142
:1007000005E02E4F076036E02D4F076033E02A4F9B
:100710003F1F3F68C7F38056274F3F1F3F6807F0D2
:100720003F036EB1264FB7FBF3F7DFF88CC0ACF197
:10073000040CDCF800C0CCF3881C07FB0CF40CE0C4
:100740001E4FB7FBF3F7DFF870C0ACF1040CDCF818
:1007500000C0CCF3881C07FB0CF4174F3F1F3F6809
:10076000C7F301477F1C7D00B4FBF5F7076002E08B
:10077000124F076000BF00BF0F4F3F6807F0F00146
:100780000909104F7A5C0768D74047600A4F3F68F5
:1007900007F4E051890A0B4F7A5C4768D7408760BD
:1007A000054F3F6807F46041490B064F7A5C476884
:1007B000D740C760F0BD0000083802400024F400B4
:1007C00000127A00480000200149086070470000CC
:1007D000382C014001460020034A12680A400AB141
:1007E000012000E000207047342C014010B500F0DB
:1007F00025F810BD29B1064A12680243044B1A605D
:1008000004E0034A12688243014B1A6070470000FB
:100810003C2C014010B50748006800F0C05040B1C2
:100820000120054908604FF0C25102485830FFF7D7
:10083000E7FD10BD006402402400002010B54FF415
:100840008070FFF7C7FF50B10020254908704FF4B2
:100850008070FFF7B9FF01202249086037E00220CD
:10086000FFF7B8FF30B10220FFF7AEFF02201C49AE
:1008700008702CE00820FFF7ADFF30B10820FFF72B
:10088000A3FF04201649087021E02020FFF7A2FFF3
:1008900030B12020FFF798FF06201149087016E0BC
:1008A0001020FFF797FF30B11020FFF78DFF0520D4
:1008B0000B4908700BE04FF40070FFF78BFF30B16D
:1008C0004FF40070FFF780FF0720054908700021F2
:1008D0004CF23A30FFF78EFF0148007810BD00005F
:1008E0001C00002020000020704700000CB50020F4
:1008F000019000903448006840F48030324908602C
:1009000000BF3148006800F4003000900198401C9E
:100910000190009818B90198B0F5A04FF1D12A487C
:10092000006800F4003010B10120009001E00020C8
:1009300000900098012846D123484030006840F0DC
:1009400080502149403108602048006840F4404010
:100950001E4908601C48083000681B4908310860BF
:100960000846006840F4004008600846006840F40B
:10097000A05008601648091F0860081F006840F072
:100980008070091F086000BF0F48006800F0007009
:100990000028F9D040F205700E4908600A48083076
:1009A000006820F003000849083108600846006824
:1009B00040F00200086000BF03480830006800F003
:1009C0000C000828F8D10CBD00380240007000402F
:1009D00008544007003C024010B500F0DDFE10BD99
:1009E00030B5164800684FF47A72B0FBF2F1481E39
:1009F000B0F1807F01D301201BE0481E4FF0E022C0
:100A0000506150170F22002807DA13071D0E0C4BF8
:100A100000F00F04241F1D5503E013071C0E094BA3
:100A20001C5400BF00204FF0E022906107201061AD
:100A3000002008B100BFFEE730BD000034000020F8
:100A400018ED00E000E400E010B51548006840F43F
:100A50007000134908601348006840F00100114914
:100A6000086000200F49083108600E4800680E49F0
:100A700008400C4908600D48091D0860081F0068FF
:100A800020F48020091F0860002006490C3108600E
:100A9000FFF72CFF4FF0006001498039086010BD5E
:100AA00088ED00E000380240FFFFF6FE1030002421
:100AB00010B50121880700F021F848B10548006809
:100AC00080F40060034908600121880700F007F8FE
:100AD00010BD0000141C0240CA4302827047CA4382
:100AE0000282704721B1028842F00102028004E0D4
:100AF00002884FF6FE731A400280704730B50246F6
:100B0000002000230024158A05EA0103958905EADF
:100B1000010413B10CB1012000E0002030BD1AB176
:100B200083890B43838102E083898B4383817047F0
:100B30000EB501210846FFF7B3FD42F20F70019098
:100B400042F2CF00ADF800000020ADF80800ADF88B
:100B5000020069464FF0804000F00EF8012188073E
:100B6000FFF7BAFF012211469007FFF7D8FF0121D6
:100B70008807FFF7B7FF0EBD00220288184B984286
:100B80000ED0184B98420BD0B0F1804F08D0164BC6
:100B9000984205D0154B984202D0154B984204D18B
:100BA0004FF68F731A404B881A43124B984207D066
:100BB000114B984204D04FF6FF431A400B891A4359
:100BC00002804B68C3620B880385054B984202D0B4
:100BD000044B984201D18B7A0386012383827047AC
:100BE00000000140000401400004004000080040F3
:100BF000000C0040001000400014004010B500F050
:100C000003F8FFF795FF10BD08B54FF4E060FFF75C
:100C10002BFD1C208DF8000000208DF80100032022
:100C20008DF8020001208DF803006846FFF7E0FC14
:100C300008BD00002DE9F04707468946002500263B
:100C400000242CE004EB8400174901EBC000406A4B
:100C500018B304EB84000A4602EBC0013846FFF7E4
:100C6000D3FA0546CDB104EB84010F4A02EBC10073
:100C7000FFF7DCFAC6B22846FFF7D8FA801B00F06F
:100C8000FF08A81904EB8401074B03EBC1014A6A72
:100C9000414690470120BDE8F087601CC4B2082C93
:100CA000D0DB0020F7E70000E400002010B50024AE
:100CB00040F22551164800F090F878B1144800F041
:100CC00045F91449144A127888541348007880284A
:100CD00004DA11480078401C0F49087040F22441A2
:100CE0000B4800F07AF890B10948848804880B48D2
:100CF000006848B108480078012805DD06480178F9
:100D00000448064A1268904700200349087010BD45
:100D100000100140240200203000002028000020A4
:100D200010B5002440F225511A4800F056F878B169
:100D3000184800F00BF91849184A127888541748D7
:100D40000078802804DA15480078401C13490870A0
:100D500040F224410F4800F040F8D0B10D48001D8A
:100D60000488001F04880D4802780B490C4800F0E5
:100D700048FE0C48006848B108480078012805DDA5
:100D8000064801780448074A126890470020034942
:100D9000087010BD00440040A40200203100002073
:100DA000001001402C00002021B1828942F4005241
:100DB000828104E082894DF6FF731A408281704778
:100DC00002460020B1F5007F00D100BF13880B4020
:100DD0000BB1012000E00020704770B502460024EE
:100DE00000230025002040F66A16B14200D100BF62
:100DF000C1F3421501F01F03012606FA03F3012D8A
:100E000002D19689334006E0022D02D1168A334082
:100E100001E0968A33400C12012606FA04F4168883
:100E2000344013B10CB1012000E0002070BDF0B5DA
:100E30000346002400260025002040F66A17B94228
:100E400000D100BF1846C1F3421401F01F0601276C
:100E500007FA06F5012C01D10C3004E0022C01D177
:100E6000103000E014301AB107682F43076002E029
:100E70000768AF430760F0BD2DE9FF4705460E4602
:100E80000024A14600BFA046B08900B100BF2C8A53
:100E900024F44054F08804432C82AC8941F20C6065
:100EA0008443B08831890843718908430443AC8185
:100EB000AC8A24F44074B0890443AC826846FFF7DE
:100EC0000FFC2048854202D01F48854202D1DDF840
:100ED0000C9001E0DDF80890A88900F4004040B1D2
:100EE00009EBC90000EB091031684900B0FBF1F7CC
:100EF00007E009EBC90000EB091031688900B0FB7D
:100F0000F1F76420B7FBF0F004012009642101FB34
:100F10001078A88900F4004040B1322000EBC800EE
:100F2000B0FBF1F000F00700044308E0322000EBD2
:100F300008106421B0FBF1F000F00F0004432C8195
:100F4000BDE8FF8700100140001401400146888879
:100F5000C0F308007047C1F30802828070470000A8
:100F600001480068704700000C00002000BFFEE749
:100F70000FB4054B10B503A9044A029800F01CF801
:100F800010BC5DF814FB000061160008580000203A
:100F9000004870475C00002002E008C8121F08C12A
:100FA000002AFAD170477047002001E001C1121FEA
:100FB000002AFBD1704700002DE9FF4F8BB09A4605
:100FC0000F460546002606E025280BD052460D990F
:100FD00090476D1C761C28780028F5D10FB030465C
:100FE000BDE8F08F0024A0460122604900E00443E0
:100FF00015F8013F203B02FA03F00842F7D12878A8
:101000002E2817D115F8010F44F004042A280ED019
:101010006FF02F022878A0F1300109290AD808EBD7
:10102000880102EB410100EB01086D1CF2E757F863
:10103000048B6D1C287869283ED006DC0028CDD0B2
:1010400063280BD0642804D136E0732810D07528AB
:101050004BD052460D999047761C85E017F8040B4B
:101060008DF8000000208DF80100E946012003E022
:1010700057F8049B4FF0FF3061074FF0000401D494
:101080000AE0641C44450DDA8442FADB19F80410C6
:101090000029F6D106E0641C8442FCDB19F8041038
:1010A0000029F8D1264404E019F8010B52460D99A5
:1010B0009047641EF8D257E001CF4FF00A0B00288A
:1010C00002DA40422D2102E0210504D52B218DF8C2
:1010D0002410012103E0E10705D02021F7E70DF1FD
:1010E000200908910CE00021F9E701CF4FF00A0B2D
:1010F000F9E75946FFF7BBF801F1300209F8012D75
:101100000028F6D1ADEB090000F1200B600701D4F7
:101110004FF00108D84502DDA8EB0B0000E00020ED
:101120008046002406E009A85246005D0D999047CC
:10113000641C761C08988442F5DB04E0302052469B
:101140000D999047761CB8F10001A8F10108F5DC73
:1011500005E019F8010B52460D999047761CBBF13A
:101160000001ABF1010BF4DC6D1C34E70928010030
:1011700010B50249022000F027FC10BDBD17000881
:101180002DE9F04105460E46002423E004EB8400DF
:10119000144911F83000D8B904EB840001EBC00009
:1011A000406AA8B92846FFF741F8074604EB8401D6
:1011B0000C4A02EBC1003A462946FFF701F804EB5E
:1011C0008400084901EBC00046620020BDE8F081C0
:1011D000601CC4B2082CD9DB294603A0FFF7C8FE67
:1011E000FF20F3E7E40000206372656174652075F9
:1011F00072633A257320636F6D6D616E6420666162
:10120000696C65640D0A00002DE9F0410446002771
:1012100000250D484078A04201DB002C02DC0020B4
:10122000BDE8F081084DAD1C002607E02846FEF71A
:10123000FDFF401CC7B23D44701CC6B2601EB042E8
:10124000F4DC2846ECE70000600000202DE9F047C0
:1012500007460C4615461E464FF00009C846314663
:10126000384600F0ABF818B14FF0FF30BDE8F0871A
:101270002846FFF7C9FFB0F1000805D10BA0FFF722
:1012800077FE4FF0FF30F1E72046FEF7CFFF8246B2
:10129000524641462046FEF7D0FF28B10CA0FFF78A
:1012A00067FE4FF0FF30E1E70020DFE70D0A3E3E2A
:1012B0003E3E3E67657420746865206C696E6520EB
:1012C000627566666572206661696C65640D0A0008
:1012D0000D0A3E3E3E3E3E7265706C792069732079
:1012E0006E6F742065787065637465640D0A000024
:1012F0002DE9F05F81460C4615461E46DDF828A014
:101300000027B8465146484600F058F810B1781EFC
:10131000BDE8F09F3046FFF777FFB0F1000805D138
:1013200012A0FFF725FE4FF0FF30F1E72046FEF751
:101330007DFF83465A4641462046FEF77EFF28B190
:1013400013A0FFF715FE4FF0FF30E1E72046FEF750
:101350006DFF00EB08073846FEF768FF83465A46E4
:1013600039462846FEF72CFF0020D1E70D0A3E3E05
:101370003E3E3E67657420746865206C696E65202A
:10138000627566666572206661696C65640D0A0047
:101390000D0A3E3E3E3E3E746865206865616420ED
:1013A0006F66207265706C79206973206E6F74208F
:1013B00065787065637465640D0A00002DE9F0417D
:1013C00004460D46264600F033F82046FEF72EFF71
:1013D000C7B23A4621460D4800F013FB0CA1304637
:1013E000FEF712FF20B9022209A1084800F009FB0C
:1013F000284600F017FB38B1214606A0FFF7B8FDDC
:101400004FF0FF30BDE8F0810020FBE700440040D2
:101410000D0A00000D0A3E3E3E3E3E25733A7265BF
:10142000706C792074696D656F75740D0A00000029
:1014300010B580210448FEF7DCFE00200249891E19
:101440004870087010BD00006200002001B504491A
:101450000098086000BF024800680028FBD108BD62
:101460000800002010B5FFF783FE044904A0FFF731
:1014700087FE074907A0FFF783FE10BDE9170008A4
:101480002B51495552433A2022726563762200005F
:10149000DD1700082B51495552433A2022636C6FE7
:1014A000736564220000000000B589B0202101A806
:1014B000FEF79FFE4648007830B101281BD0022875
:1014C00050D0032816D170E040F6B833022241A173
:1014D00041A0FFF7BBFE50B140F6B833022241A154
:1014E0003DA0FFF7B3FE10B1032039490870012079
:1014F0003749087069E040F6B833022235A13CA0B4
:10150000FFF7A4FE08B109B000BD40F6B830FFF700
:101510009DFF40F6B830022301AA36A1009037A003
:10152000FFF7E6FE00B1EEE7052201A936A0FEF7BF
:1015300084FE00B1E7E740F6B830FFF787FF40F6DA
:10154000B830022301AA32A1009033A0FFF7D0FEE9
:1015500000B1D8E79DF80600312802DB02201C49C3
:101560000870D0E741F28830042301AA2DA1009031
:101570002FA0FFF7BDFE00B1C5E740F6B833022249
:1015800014A115A0FFF762FE50B140F6B833022255
:1015900014A111A0FFF75AFE10B103200C490870E6
:1015A00040F6B830FFF752FF0FE040F6B8330222A2
:1015B0000CA109A0FFF74AFE10B1012004490870F0
:1015C00040F6B830FFF742FF00BF00BF00BF9AE708
:1015D000000000204F4B000041542B51495354410F
:1015E00054453F002B514953544154453A000000A3
:1015F000415400002B4350494E3A000041542B43C4
:1016000050494E3F0000000052454144590000003F
:101610002B435245473A000041542B435245473F24
:10162000000000002B51494F50454E3A0000000089
:1016300041542B51494F50454E3D312C302C2254B2
:101640004350222C2234372E3130362E3232312E76
:10165000313733222C3434332C302C30000000004E
:1016600070B504460D46E1B20548FFF774FC00BFB3
:1016700080210348FFF7A4FB0028F9D0204670BD65
:1016800000100140FFF7ACF9FEF744FFFFF7B6FA90
:1016900000F0EEF8FFF7E6FE01E0FFF705FFFCE7DC
:1016A0002DE9F047074688464FF000093D46224E97
:1016B0000024B8F1800F05DB802120A0FFF758FC43
:1016C000BDE8F0871C48801E0078002831D1012039
:1016D0001949891E087028E025A12846FEF794FDC7
:1016E00081461548801E4078401C1349891E487069
:1016F000B9F1000F05D1002008701EA0FFF738FCDB
:10170000DEE7002089F800002846FEF78FFDC4B20E
:1017100024B1224629463046FEF752FD26440020D9
:101720003070761CA01CC4B2254407EB0800A84208
:10173000D2D800BFC4E70000620000200D0A3E3E80
:101740003E3E3E74686520726573706F6E642064FF
:101750006174612073697A65206F766572207468A0
:1017600065206D61782073697A652025640D0A0013
:101770000D0A00000D0A3E3E3E3E3E726573706FDC
:101780006E64206572726F722C776974686F7574FD
:1017900020656E640D0A000006480068401C05497B
:1017A00008600548006820B103480068401E0249EF
:1017B000086070470C0000200800002070B5044647
:1017C0000D4629462046FFF735FA00B170BD29467F
:1017D0002046FFF765FF00BFF8E700000122014B3C
:1017E0001A707047000000202DE9F04790B00546C0
:1017F0008A4640216846FEF7FCFC4FF000082C4664
:101800000026B14600276078303800F0FF09E41C5C
:101810000FA12046FEF7F8FC064600203070204657
:10182000FEF718FDC7B22046FEF700FD801C0444F9
:10183000002004E0215C0DF80010411CC8B2B84241
:10184000F8DB04A0FFF794FB10B0BDE8F0870000C0
:101850000D0A00000D0A3E3E3E3E3E3E746370207F
:1018600072656369657665206F6B0D0A0000000084
:1018700000B587B001210846FEF702FF01211020C4
:10188000FEF71EFF00208DF81A0001208DF81B00C6
:1018900002208DF819008DF818000002059005A9A6
:1018A0004648FEF7C8FD02208DF81800400205905A
:1018B00005A94248FEF7BFFD07220A213F48FEF76F
:1018C00002FE072209213D48FEF7FDFD4FF4E130FD
:1018D00001900020ADF80800ADF80A00ADF80C004A
:1018E000ADF810000C20ADF80E0001A93448FFF748
:1018F000C3FA012240F225513148FFF798FA01223C
:1019000040F224412E48FFF792FA01212C48FFF7BC
:101910004BFA01210846FEF7B3FE01214804FEF709
:10192000BFFE072203212548FEF7CDFD0722022135
:101930002248FEF7C8FD00208DF81A0001208DF81E
:101940001B0002208DF818000420059002208DF85D
:10195000190005A91948FEF76EFD02208DF8180040
:101960000820059005A91548FEF765FD4FF4E13004
:1019700001900020ADF80800ADF80A00ADF80C00A9
:10198000ADF810000C20ADF80E0001A90D48FFF7CE
:1019900073FAFEF70CFE012240F225510948FFF7C9
:1019A00046FA012240F224410648FFF740FA01219D
:1019B0000448FFF7F9F907B000BD0000000002403D
:1019C0000010014000440040012802D1034A116088
:1019D00003E0022801D1024A11607047280000206C
:1019E0002C00002070B504460D4629462046FFF71E
:1019F000B2FA00BF80212046FFF7E2F90028F9D0B3
:101A000070BD70B506460C46154604E014F8011B7F
:101A10003046FFF7E7FF281EA5F10101CDB2F5D151
:101A200070BD000010B5044612E00E48006818B9F9
:101A3000FFF796FA0B490860FFF792FA094909681F
:101A4000401AA04204D3002006490860401E10BD81
:101A5000054800780028E8D000200249086000BF4F
:101A6000F5E7000004000020600000200040404036
:101A70004040404040404141414141404040404061
:101A8000404040404040404040404040400502020D
:101A900002020202020202020202020202202020CC
:101AA0002020202020202002020202020202909028
:101AB0009090909010101010101010101010101026
:101AC000101010101010101002020202020288887A
:101AD0008888888808080808080808080808080886
:101AE000080808080808080802020202400000006E
:101AF0006D1A0008141B00080000002060000000A0
:101B0000980F0008741B000860000020C806000041
:101B1000A80F000800000000000000000000000006
:101B200000000000000000000000000000000000B5
:101B300000000000000000000000000000000000A5
:101B40000000000000000000007A030A000000000E
:101B5000000000000102030406070809000000005D
:101B60000102030401020304060708090000000043
:041B70000000000071
:040000050800018965
:00000001FF
