:020000040800F2
:10000000200500209D01000881120008E51100086C
:100010007D120008C7100008251C00080000000021
:10002000000000000000000000000000BD150008F6
:10003000091100080000000051130008AD16000867
:10004000B7010008B7010008B7010008B7010008B0
:10005000B7010008B7010008B7010008B7010008A0
:10006000B7010008B7010008B7010008B701000890
:10007000B7010008B7010008B7010008B701000880
:10008000B7010008B7010008B7010008B701000870
:10009000B7010008B7010008B7010008B701000860
:1000A000B7010008B7010008B7010008B701000850
:1000B00085170008B7010008B7010008B70100085C
:1000C000B7010008B7010008B7010008B701000830
:1000D000B701000855190008D9190008B701000830
:1000E000B7010008B7010008B7010008B701000810
:1000F000B7010008B7010008B7010008B701000800
:10010000B7010008C1140008B7010008B7010008D2
:10011000B7010008B7010008B7010008B7010008DF
:10012000B7010008B7010008B7010008CB100008AC
:10013000B7010008B7010008B7010008B7010008BF
:10014000B7010008B7010008B7010008B7010008AF
:10015000B7010008B7010008B7010008B70100089F
:10016000B7010008B7010008B7010008B70100088F
:10017000B7010008B7010008B7010008B70100087F
:10018000B7010008B7010008DFF80CD000F00EFD41
:1001900000480047ED200008200500200648804761
:1001A00006480047FEE7FEE7FEE7FEE7FEE7FEE75C
:1001B000FEE7FEE7FEE7FEE71D17000889010008DD
:1001C00040EA01039B0703D009E008C9121F08C0D9
:1001D000042AFAD203E011F8013B00F8013B521E59
:1001E000F9D27047D2B201E000F8012B491EFBD2D0
:1001F00070470022F6E710B513460A460446194632
:10020000FFF7F0FF204610BD421C10F8011B00292B
:10021000FBD1801A704730B504460020034600E049
:100220005B1C934203D2E05CCD5C401BF8D030BD38
:1002300000B58DB0099000920B904FF0FF300A90FE
:1002400000200C9004480690044807906A4609A8CC
:1002500000F09CFB0DB000BDA9090008C70900080B
:10026000202A04DB203A00FA02F100207047914076
:10027000C2F1200320FA03F3194390407047202A6B
:1002800004DB203A21FA02F00021704721FA02F340
:10029000D040C2F1200291400843194670472DE931
:1002A000FF4F1C4681B00021D4E9016791464FF011
:1002B000FF358A468846A1696D1C02988847216AE5
:1002C000834688470028F6D1BBF1FF3F0CD026F4C7
:1002D000C066002F1ADD700615D5BBF12B0F0AD0B2
:1002E000BBF12D0F0FD104E04FF0FF3005B0BDE89A
:1002F000F08F46F48066A1696D1C029888477F1EC6
:100300008346002F02DDBBF1300F03D0B9F1000F9F
:100310002AD025E0A1696D1C46F400767F1E029864
:1003200088478346002F05DDBBF1780F06D0BBF16F
:10033000580F03D0B9F1000F10D011E0B9F1000F40
:1003400002D0B9F1100F0BD1A1696D1C26F4007613
:100350007F1E029888478346102000E008208146CF
:100360004FEAE970009017E00A20F8E74346AAFB3D
:10037000092803FB0980DDF800C07F1E0AFB0C0181
:1003800012EB0B0A41EBEB78A16946F4007605F11C
:100390000105029888478346002F06DD49465846E6
:1003A00000F01BFC5FEA000BE0D5E169029888478A
:1003B000B00502D46FF0010098E7F00718D170067D
:1003C00010D57005514605D50023D1EB030163EB31
:1003D000080200E042462068031D23600068C0E96F
:1003E000001205E02068011D21600068C0E900A836
:1003F00028467BE72DE9FF5F1D464FF0FF3BD5E91F
:10040000014691465F464FF00008A9697F1C01989C
:100410008847296A824688470028F6D1BAF1FF3F0B
:100420000CD024F4C064002E19DD600614D5BAF196
:100430002B0F09D0BAF12D0F0ED103E0584604B0AE
:10044000BDE8F09F44F48064A9697F1C0198884747
:10045000761E8246002E02DDBAF1300F03D0B9F1CC
:10046000000F26D032E0A969761E44F400747F1C88
:10047000019888478246002E05DDBAF1780F06D034
:10048000BAF1580F03D0B9F1000F10D01EE0B9F146
:10049000000F02D0B9F1100F18D1A969761E24F40B
:1004A00000747F1C019888478246102002E00820D3
:1004B00000E00A20814609E008FB0908A969761EC8
:1004C00044F400747F1C019888478246002E05DDA5
:1004D0004946504600F081FB0028EDDAE9690198B1
:1004E0008847A00502D46FF00100A8E7E00725D1F6
:1004F000600613D5600502D5C8F1000000E0404653
:1005000029680A1D2A600968220501D5087015E0CE
:10051000220701D5088011E008600FE02868011D5E
:1005200029600068210502D580F8008006E02107D7
:1005300002D5A0F8008001E0C0F8008038467EE7D0
:100540002DE9FF5FD2E901A74FF0000891699946B4
:100550001446DDF838B0464601988847054659EA02
:100560000B0005D009E0A169761C01988847054673
:10057000216A284688470028F5D1681C03D05FEA25
:10058000CA7005D015E04FF0FF3004B0BDE8F09F11
:100590002068011D2160D0F800800AE05FEACA707F
:1005A00001D108F8015BA169761C7F1E019888477C
:1005B0000546002F1ADD681C18D0B9F1000F0DD0C8
:1005C000E81705EBD060421120F01F0059F8221007
:1005D0002A1A012090400142E0D107E0BBF1000F50
:1005E000DCD1216A284688470028D7D0E1690198E4
:1005F0008847BBF1000F07D1002E05DD5FEACA7006
:1006000002D1002188F80010A068B84203DDBBF1D8
:10061000000F03D017B16FF00100B6E73046B4E722
:100620002DE9FF4F087883B09946FF2805D0491C73
:100630002D2804D00024002008E000200BE0012435
:10064000F9E700EB800003EB4000491C0B78FF2B1F
:10065000F7D104B1404200230293147819461D4695
:100660002D2C01D02B2C04D1521C2D2C13D0002466
:100670000294AA461478FF2C0FD00A25A3FB057814
:1006800001FB05814FF0000C03FB0C11521CE31918
:100690004AEB0101EEE70124EAE7814453EA010055
:1006A00002D019F5C87F06DA03980021C0E90011CD
:1006B00007B0BDE8F08F0025AE4E2F46DFF8B882B8
:1006C000184600F08CFCCDE90001B9F1000002DA17
:1006D000C9F1000400E004460023A74A1AEB030B0B
:1006E00042EB045A12E0E00707D02A463346384668
:1006F000414600F079F9074688462A4633461046B7
:10070000194600F071F905460E466410002CEAD136
:10071000DDE90001B9F1000F5A46534606DA00F050
:10072000D5F93A46434600F0D1F905E000F05CF90E
:100730003A46434600F058F9029A0AB181F0004166
:10074000039AC2E90001B3E72DE9FF4F1F468DB0C0
:10075000D7E901464FF0FF382E2045464FF00009FB
:100760000B90B9696D1C0E988847396A8246884794
:100770000028F6D1BAF1FF3F0AD024F4D064002E4D
:1007800011DDBAF12B0F08D0BAF12D0F0BD102E019
:10079000404611B08DE744F48064B9696D1C0E9831
:1007A00088478246761E6946600501D52D2000E007
:1007B0002B208DF8000001F1010B0DF1200809E05C
:1007C000B9696D1C0E98884782460F9844F40074EE
:1007D000761E0560002E02DDBAF1300FF0D00B99C5
:1007E0008A453ED144F0800406E00F99681CA9F1C7
:1007F000010944F400740860B9696D1C761E0E98F6
:10080000884782463028F0D02BE00B998A4505D1E5
:10081000200603D444F08004761E18E0504601F010
:1008200022FA08B30DF11301761E44F400748B45CF
:1008300008D2AAF130000BF8010B200607D5A9F168
:10084000010003E0200602D409F101008146A00561
:1008500002D50F99681C0860B9696D1C0E9888470D
:100860008246002ED1DC53E0002E51DDBAF1650F37
:1008700002D0BAF1450F4BD1A00549D5B9696D1C1D
:1008800024F44074761E0E9888478246002E0CDDB4
:100890002B2804D0BAF12D0F07D144F48074B96924
:1008A0006D1C0E9888478246761EE00501D52D21E5
:1008B00000E02B2108F8011BCDF82C8021E00DF180
:1008C0002901761E44F4007488450CD2AAF1300048
:1008D00010F0FF0088F8000002D10B99884509D973
:1008E00008F1010806E0E00501D5244801E042F2E4
:1008F0000F708146B9696D1C0E98884782460F9823
:100900000560002E04DD504601F0ADF90028D6D177
:10091000F9690E988847FF208BF8000088F80000DE
:100920000020069007904B466A4608A906A8FFF7E4
:1009300077FEA00502D46FF001002AE714F0240F1F
:100940000AD0E00714D1DDE906123868031D3B60C8
:100950000068C0E900120BE0DDE9060100F04BFB86
:100960000146E00704D13868021D3A600068016062
:1009700028460EE7000014400000F03FF1D8FFFFCA
:10098000026811441378016018467047D160044929
:1009900051610449116200211161114600F02CB926
:1009A00081090008D10B0008426842B1016811F8C2
:1009B000013B23B1521EC0E90012184670470121C5
:1009C000C160881E704742685AB1C368016843B964
:1009D00083688B4205D0491E521CC0E900120020DA
:1009E00070474FF0FF3070472DE9FE4F81EA030456
:1009F00004F0004421F0004100944FF0000B23F07C
:100A0000004350EA01045ED052EA03045BD0C3F312
:100A10000A54C1F30A552C44A4F2F3340194A0FB08
:100A20000254C1F3130141F48011C3F3130343F4DF
:100A3000801301FB024400FB034E840A970A44EA38
:100A4000815447EA8357A4FB076802958D0A05FB8A
:100A500007854FEA932C04FB0C542705029D4FEAAF
:100A6000065847EA1637B5EB08056EEB070C870EFC
:100A7000920E47EA811742EA8312A7FB0201B6EB06
:100A80000B0164EB00042B0D43EA0C335E1844EBBE
:100A90001C50DA465146E7FB0201C5F313044FEA46
:100AA0000B3343EA14534FEA0432019C43EA060332
:100AB000A4F10C040294009CCDE900B400F041FACA
:100AC00003B0BDE8F08F00200146F9E72DE9F04DB5
:100AD00081EA030404F0004B21F0004514464FF076
:100AE000000A23F0004150EA050220D054EA010236
:100AF0001DD0C5F30A570246C5F31303C1F3130013
:100B0000C1F30A5640F4801543F48013A7EB06089E
:100B1000101BD64608F2FD3873EB050002D308F12E
:100B2000010801E092185B41B8F1000F03DA0020E0
:100B30000146BDE8F08D00204FF480110646844642
:100B40000EE0171B73EB050705D3121B63EB0503C0
:100B500006434CEA010C49084FEA300092185B4109
:100B600050EA0107EDD152EA030012D082EA0400F4
:100B700083EA0501084305D0101BAB4106D20122D0
:100B8000002306E000224FF0004302E06FF0010274
:100B900053101AEB06004CEB085110EB0A0041EB26
:100BA0000B01BDE8F04D00F0BDB90000064C074D4B
:100BB00006E0E06840F0010394E80700984710342D
:100BC000AC42F6D3FFF7E4FAF02300081024000843
:100BD000C0B24FF4F05100F02BBA3A2800D23038AE
:100BE00020F02002412A01D3A2F13700884201D32C
:100BF0004FF0FF30704700002DE9F34F8BB04FF0FE
:100C0000000801F10C000C464FF0010B46460DF1B7
:100C1000080A01906269012101989047051E2DD0B4
:100C2000252D2CD0216A8847C0B162690121019825
:100C30009047216A88470028F7D1411E62690198D0
:100C4000904700E0761CA1690B988847216A884785
:100C50000028F7D1E1690B988847DBE7A1690B9879
:100C600088470746A84201D1761CD3E7E1690B9873
:100C700088477F1C02D1B8F1000F6FD046E10027F2
:100C800062693D463946019890472A2804D1626935
:100C90000121019890470125DFF8849262690121C2
:100CA00001989047A0F130010A290AD24F45E5DCAE
:100CB00007EB870100EB4107303FDFD445F010051B
:100CC000ECE7E90601D46FF000476C280AD04C2805
:100CD00014D0682815D06A280DD074281CD07A2822
:100CE0001AD01DE062690121019890476C2802D05A
:100CF00045F0040514E045F002050DE045F020053F
:100D00000AE06269012101989047682802D045F005
:100D1000080505E045F400656269012101989047E6
:100D2000C4E9015765283DD019DC58287AD00CDC7D
:100D3000452837D004DC252826D0412831D131E0A0
:100D400046282FD047282CD12CE05B2877D061286B
:100D500028D063287CD0642823D15AE0D0E06F28C3
:100D600048D008DC66281DD067281BD0692821D010
:100D70006E2816D127E0702845D0732868D07528D2
:100D800047D078280DD14DE0A1690B9888470546DA
:100D900025283FF469AFE1690B9888476D1C3FF443
:100DA0006AAFB3E023466A466FF001000B99FFF784
:100DB000CBFC9EE045F040006060A80723464FF062
:100DC000000236D43EE0E8077FF447AF2068011DFB
:100DD00021600068290501D506701BE7290701D5A8
:100DE000068017E7A90703D5F117C0E9006111E7ED
:100DF00006600FE745F040006060A80723464FF00B
:100E0000080216D41EE040F60E0125EA01006060DB
:100E100016E045F040006060A80723464FF00A0244
:100E200007D40FE045F040006060A80708D52346CE
:100E300010226FF001000B99FFF731FA59E007E03B
:100E4000234610226FF001000B99FFF7D3FA50E010
:100E50004FF000094F464B46632802D05B2806D06E
:100E600040E0E80601D40120A06001273AE0626971
:100E70000121019890475E2805D14FF00109626970
:100E8000494601989047216939B900210A465346DD
:100E900043F82120491C0829FADBB0B3216969B95C
:100EA000C11700EBD16253110AEB830122F01F023C
:100EB000821A01200B68904003430B606269012194
:100EC000019890475D28E8D1B9F1000F09D00020C2
:100ED000514651F82020D24341F82020401C0828D8
:100EE000F7DB02AB224600976FF001000B99FFF78A
:100EF00027FB00280CDA401C08D1BBF1000F05D0FD
:100F00004FF0FF300DB0BDE8F08FFFE74046F9E746
:100F1000E90701D108F1010806444FF0000B79E61A
:100F2000CCCCCC0C10B5141E73F1000408DA401CB4
:100F300041F1000192185B411A4301D120F00100F8
:100F400010BD2DE9F04D92469B4611B1B1FA81F2E8
:100F500002E0B0FA80F220329046FFF781F90446B1
:100F60000F4640EA0A0041EA0B0153465A4608433D
:100F700013D0114653EA010019D0C8F1400250467F
:100F8000FFF77DF905460E46504659464246FFF7A3
:100F900067F9084305D0012004E020463946BDE842
:100FA000F08D0020054346EAE0762C4337430A984B
:100FB0006305E40AA0EB08000022FD0A44EA475456
:100FC0000A3002D500200146E9E701051019694100
:100FD000DDE9084500196941BDE8F04DA2E70EB50D
:100FE00040F2334202920022CDE900221346FFF77D
:100FF000A8FF03B000BD01F0004330B421F0004170
:1010000050EA010206D00A0DA2F56072C1F3130185
:10101000002A02DC30BC00207047440F44EAC104BF
:10102000C100E01830BC00EBC25000F015B8000061
:101030007F2801D9002208E0064A02EB5002C007CF
:10104000127800D1120902F00F02012090400840EE
:1010500070470000B02300080029A8BF7047401C5B
:10106000490008BF20F00100704710B4B0FA80FCBE
:1010700000FA0CF050EA010404BF10BC704749B1FB
:10108000CCF1200421FA04F411FA0CF118BF01216B
:1010900021430843A3EB0C01CB1D4FEA00614FEA4B
:1010A000102042BF002010BC704700EBC35010441A
:1010B0000029A4BF10BC7047401C490008BF20F0A5
:1010C000010010BC704700BFFEE710B500F00CFA3D
:1010D00010BD00000246094B9A4201D2084801E0C7
:1010E0000648103801F000531BB1064B0B40C3609B
:1010F00002E0044B0B408360704700001064024024
:10110000006002407D0F7D0F7047F0B50A46002158
:101110000023002400BF3DE0012505FA01F3156816
:1011200005EA03049C4234D105684F000326BE4003
:10113000B543056015794E00B54006683543056036
:101140001579012D02D01579022D16D185684F0031
:101150000326BE40B543856055794E00B54086688C
:1011600035438560456801268E40B5434560456836
:1011700096798E40B6B235434560C5684F00032668
:10118000BE40B543C560D5794E00B540C66835430D
:10119000C560491C1029BFD3F0BDF0B50023002461
:1011A0004D07ED0E02FA05F3CE1000F1200555F8BB
:1011B00026504E07F70E0F26BE40B543CF1000F164
:1011C000200646F82750CE1000F1200555F826508D
:1011D00045EA0304CE1000F1200545F82640F0BD95
:1011E0004183704700BFFEE71CB50121892000F054
:1011F000B1F84020009001208DF8040000208DF807
:10120000060001208DF8070000208DF805006946D2
:101210001748FFF77AFF4FF40060009069461548C1
:10122000FFF773FF4FF48050009069461148FFF7B5
:101230006CFF4FF40060009069460F48FFF765FFB0
:1012400040200B49088340010A49183108804000BA
:10125000088041100848FFF7C3FF40200449488335
:101260004001044918310880400008801CBD00007E
:1012700000000240001C0240000C024000BFFEE7DC
:10128000704708B54FF4A06000F058F825208DF89D
:10129000000002208DF801008DF8020001208DF879
:1012A0000300684600F00EF826208DF800000120AB
:1012B0008DF801008DF802008DF80300684600F0FB
:1012C00001F808BD70B5002100230F22C4781CB3BB
:1012D000174C246804F4E064C4F5E064C4F3072107
:1012E000C1F10404E3B20A4144789C40E1B284783D
:1012F000144021430C07210E0E4C057861550478EB
:1013000004F01F050124AC4005786D11AD0005F116
:10131000E025C5F8004109E0047804F01F05012428
:10132000AC40054D0678761145F8264070BD0000AA
:101330000CED00E000E400E080E100E00249014340
:10134000024A1160704700000000FA050CED00E051
:101350007047000029B1064A12680243044B1A6024
:1013600004E0034A12688243014B1A607047000090
:101370003038024029B1064A12680243044B1A6011
:1013800004E0034A12688243014B1A607047000070
:101390004038024029B1064A12680243044B1A60E1
:1013A00004E0034A12688243014B1A607047000050
:1013B00044380240F0B50021002200240225002616
:1013C0000223324F3F6807F00C0121B1042905D0F8
:1013D000082937D105E02E4F076036E02D4F076012
:1013E00033E02A4F3F1F3F68C7F38056274F3F1F08
:1013F0003F6807F03F036EB1264FB7FBF3F7DFF806
:101400008CC0ACF1040CDCF800C0CCF3881C07FBEA
:101410000CF40CE01E4FB7FBF3F7DFF870C0ACF133
:10142000040CDCF800C0CCF3881C07FB0CF4174F4D
:101430003F1F3F68C7F301477F1C7D00B4FBF5F7F2
:10144000076002E0124F076000BF00BF0F4F3F6808
:1014500007F0F0010909104F7A5C0768D740476030
:101460000A4F3F6807F4E051890A0B4F7A5C4768DE
:10147000D7408760054F3F6807F46041490B064F2E
:101480007A5C4768D740C760F0BD0000083802406A
:101490000024F40000127A0048000020014908608E
:1014A00070470000382C014001460020034A1268B2
:1014B0000A400AB1012000E000207047342C0140AE
:1014C00010B500F025F810BD29B1064A1268024394
:1014D000044B1A6004E0034A12688243014B1A600D
:1014E000704700003C2C014010B50748006800F030
:1014F000C05040B10120054908604FF0C251024878
:101500005830FFF7E7FD10BD0064024024000020C2
:1015100010B54FF48070FFF7C7FF50B10020254988
:1015200008704FF48070FFF7B9FF0120224908606E
:1015300037E00220FFF7B8FF30B10220FFF7AEFF1F
:1015400002201C4908702CE00820FFF7ADFF30B1E5
:101550000820FFF7A3FF04201649087021E020208F
:10156000FFF7A2FF30B12020FFF798FF06201149B6
:10157000087016E01020FFF797FF30B11020FFF73A
:101580008DFF05200B4908700BE04FF40070FFF74A
:101590008BFF30B14FF40070FFF780FF0720054943
:1015A000087000214CF23A30FFF78EFF01480078B6
:1015B00010BD00001C00002020000020704700002B
:1015C0000CB50020019000903448006840F4803051
:1015D0003249086000BF3148006800F400300090D4
:1015E0000198401C0190009818B90198B0F5A04FDF
:1015F000F1D12A48006800F4003010B101200090B9
:1016000001E0002000900098012846D12348403096
:10161000006840F08050214940310860204800684F
:1016200040F440401E4908601C48083000681B49CF
:10163000083108600846006840F400400860084629
:10164000006840F4A05008601648091F0860081F91
:10165000006840F08070091F086000BF0F480068F4
:1016600000F000700028F9D040F205700E490860C3
:101670000A480830006820F0030008490831086073
:101680000846006840F00200086000BF03480830C8
:10169000006800F00C000828F8D10CBD00380240AA
:1016A0000070004008544007003C024010B500F0B4
:1016B0005DFD10BD30B5164800684FF47A72B0FB7E
:1016C000F2F1481EB0F1807F01D301201BE0481EDB
:1016D0004FF0E022506150170F22002807DA13075D
:1016E0001D0E0C4B00F00F04241F1D5503E01307C3
:1016F0001C0E094B1C5400BF00204FF0E0229061EB
:1017000007201061002008B100BFFEE730BD0000D7
:101710003400002018ED00E000E400E010B51548AA
:10172000006840F47000134908601348006840F0F6
:1017300001001149086000200F49083108600E4877
:1017400000680E4908400C4908600D48091D0860F2
:10175000081F006820F48020091F08600020064947
:101760000C310860FFF72CFF4FF000600149803911
:10177000086010BD88ED00E000380240FFFFF6FE73
:101780001030002410B50121880700F021F848B17D
:101790000548006880F4006003490860012188075B
:1017A00000F007F810BD0000141C0240CA4302827A
:1017B0007047CA430282704721B1028842F0010299
:1017C000028004E002884FF6FE731A4002807047E0
:1017D00030B50246002000230024158A05EA0103E3
:1017E000958905EA010413B10CB1012000E0002045
:1017F00030BD1AB183890B43838102E083898B4317
:10180000838170470EB501210846FFF7B3FD42F210
:101810000F70019042F2CF00ADF800000020ADF84B
:101820000800ADF8020069464FF0804000F00EF865
:1018300001218807FFF7BAFF012211469007FFF741
:10184000D8FF01218807FFF7B7FF0EBD00220288ED
:10185000184B98420ED0184B98420BD0B0F1804FE5
:1018600008D0164B984205D0154B984202D0154B24
:10187000984204D14FF68F731A404B881A43124B8B
:10188000984207D0114B984204D04FF6FF431A40BC
:101890000B891A4302804B68C3620B880385054B92
:1018A000984202D0044B984201D18B7A03860123DF
:1018B00083827047000001400004014000040040A2
:1018C00000080040000C00400010004000140040E0
:1018D00010B500F003F8FFF795FF10BD08B54FF401
:1018E000E060FFF72BFD1C208DF8000000208DF834
:1018F000010003208DF8020001208DF803006846E6
:10190000FFF7E0FC08BD00002DE9F04105460E465A
:10191000002419E00E4951F83400FEF775FC074623
:101920000B4951F834003A462946FEF774FC48B991
:10193000F1B2074800EBC4004268284690470120F6
:10194000BDE8F081601CC4B2042CE3DB0020F7E7A3
:10195000C000002010B5002440F22551194800F0C5
:1019600098F878B1174800F04DF91749174A1278DE
:10197000885416480078202804DA14480078401C5F
:101980001249087040F224410E4800F082F8C0B1BC
:101990000C48848804880D4802780B490C4800F0F4
:1019A000D2FC0C48006848B108480078012805DDE1
:1019B000064801780448074A126890470020034906
:1019C000087010BD00100140E00000203000002031
:1019D000004400402800002010B5002440F22551AA
:1019E0001A4800F056F878B1184800F00BF9184979
:1019F000184A1278885417480078202804DA1548C5
:101A00000078401C1349087040F224410F4800F050
:101A100040F8D0B10D48001D0488001F04880D480F
:101A200002780B490C4800F08EFC0C48006848B165
:101A300008480078012805DD064801780448074A6F
:101A40001268904700200349087010BD0044004010
:101A50000001002031000020001001402C00002077
:101A600021B1828942F40052828104E082894DF6DC
:101A7000FF731A408281704702460020B1F5007F53
:101A800000D100BF13880B400BB1012000E0002003
:101A9000704770B50246002400230025002040F660
:101AA0006A16B14200D100BFC1F3421501F01F0315
:101AB000012606FA03F3012D02D19689334006E090
:101AC000022D02D1168A334001E0968A33400C126F
:101AD000012606FA04F41688344013B10CB1012033
:101AE00000E0002070BDF0B503460024002600256C
:101AF000002040F66A17B94200D100BF1846C1F372
:101B0000421401F01F06012707FA06F5012C01D146
:101B10000C3004E0022C01D1103000E014301AB176
:101B200007682F43076002E00768AF430760F0BD16
:101B30002DE9FF4705460E460024A14600BFA046FA
:101B4000B08900B100BF2C8A24F44054F0880443CB
:101B50002C82AC8941F20C608443B08831890843FF
:101B6000718908430443AC81AC8A24F44074B08981
:101B70000443AC826846FFF71DFC2048854202D032
:101B80001F48854202D1DDF80C9001E0DDF8089095
:101B9000A88900F4004040B109EBC90000EB09102E
:101BA00031684900B0FBF1F707E009EBC90000EB31
:101BB000091031688900B0FBF1F76420B7FBF0F041
:101BC00004012009642101FB1078A88900F4004079
:101BD00040B1322000EBC800B0FBF1F000F007008C
:101BE000044308E0322000EB08106421B0FBF1F060
:101BF00000F00F0004432C81BDE8FF870010014076
:101C00000014014001468888C0F308007047C1F302
:101C10000802828070470000014800687047000099
:101C20000C00002000BFFEE70FB4054B10B503A960
:101C3000044A029800F01EF810BC5DF814FB000086
:101C4000C92000085800002002E008C8121F08C17F
:101C5000002AFAD170477047002001E001C1121F2D
:101C6000002AFBD1704730380A2801D20120704782
:101C7000002070472DE9F84F994692468846054660
:101C8000002706E025280AD051464A4690476D1C99
:101C90007F1C28780028F5D13846BDE8F88F00234E
:101CA00015F8011F18462E2915D115F8011F042318
:101CB0002A290DD06FF02F022978A1F13004092CC8
:101CC00009D800EB800002EB400008446D1CF3E7EC
:101CD00058F8040B6D1C2A78002ADDD0632A07D03F
:101CE000732A0FD0104651464A4690477F1C2AE07F
:101CF00018F8042B8DF8002000218DF801106E4695
:101D0000012103E058F8046B4FF0FF315A074FF000
:101D1000000401D409E0641C84420BDA8C42FADB33
:101D2000325D002AF7D105E0641C8C42FCDB305D9B
:101D30000028F9D1274404E016F8010B51464A4621
:101D40009047641EF8D26D1CA3E7000010B502494D
:101D5000022000F0DBFA10BD91210008014607487F
:101D60004078401C884201DB002901DC00207047DC
:101D7000481E024A921C02EB4010F8E75C0000206B
:101D80000FB4F8B50446002500262046FFF7E6FF0D
:101D9000061E06D109A0FFF747FF681EF8BC5DF8D4
:101DA00014FB08A800903046009A0799FEF740FA05
:101DB00005460020009068B2F0E7000067657420D7
:101DC000746865206C696E65206275666665722050
:101DD0006661696C65640D0A000000002DE9F04140
:101DE00088B007460C4615461E4620216846FEF779
:101DF00000FA3146384600F059F820B14FF0FF3074
:101E000008B0BDE8F0816A4609A12846FFF7B8FF8F
:101E10002046FEF7F9F98046424669462046FEF71D
:101E2000FAF910B14FF0FF30EAE70020E8E70000D0
:101E3000257300002DE9F04788B080460C46154612
:101E40001E46DDF8409020216846FEF7D2F90027B3
:101E50004946404600F02AF818B1781E08B0BDE89F
:101E6000F0876A4610A13046FFF78AFF2046FEF74A
:101E7000CBF98246524669462046FEF7CCF910B1AE
:101E80004FF0FF30EAE72046FEF7BEF969464718F3
:101E90003846FEF7B9F98246524639462846FEF7DB
:101EA0008FF90020DAE700002573000070B50446C2
:101EB0000D4600F031F82046FEF7A6F9C6B23246CC
:101EC00021460E4800F03FFA2046FEF79DF9401EDD
:101ED000205C0A2804D0022209A1084800F033FA45
:101EE000284600F041FA30B1214606A0FFF79CFEDB
:101EF0004FF0FF3070BD0020FCE7000000440040C0
:101F00000D0A000025733A7265706C792074696D52
:101F1000656F75740D0A000000200CE0002106E0DA
:101F200000230A4A02EB401253544A1CD1B2202922
:101F3000F6DB411CC8B20549891E49788142EDDCB7
:101F400000200249891E4870087070475E0000201A
:101F500000B589B0202101A8FEF74BF9314800787F
:101F600020B1012831D0022859D157E040F6B833CA
:101F700002222DA12DA0FFF731FF08B109B000BD4D
:101F800040F6B830022301AA29A100902AA0FFF749
:101F900051FF00B1F2E7052201A92AA0FEF73BF9A3
:101FA00000B1EBE740F6B830022301AA27A1009068
:101FB00028A0FFF73FFF00B1E0E79DF806003128B9
:101FC00002DB012017490870D8E740F6B833022237
:101FD00015A123A0FFF702FF00B1CFE740F6B83309
:101FE000022211A126A0FFF7F9FE00B1C6E74FF4C7
:101FF0007A70022301AA25A1009027A0FFF71AFFFB
:1020000000B1BBE79DF80600302806D19DF8060018
:10201000302802D102200349087000E000BF00BF51
:1020200000BFABE7000000204F4B00004154000010
:102030002B4350494E3A000041542B4350494E3FE8
:102040000000000052454144590000002B43524516
:10205000473A000041542B435245473F00000000DF
:1020600041542B5149435347503D312C312C22557B
:102070004E494E4554222C22222C22222C31000083
:1020800041542B51494143543D3100002B51494F9C
:1020900050454E3A0000000041542B51494F5045E5
:1020A0004E3D312C302C22544350222C2234372EDA
:1020B0003130362E3232312E313733222C34343314
:1020C0002C302C300000000070B504460D46E1B203
:1020D0000548FFF79CFD00BF80210348FFF7CCFCBB
:1020E0000028F9D0204670BD00100140FFF7E2FA49
:1020F000FFF77AF8FFF7ECFB00F05AF8FFF726FE3F
:1021000001E0FFF725FFFCE7F0B5024600230120C0
:10211000154C2070002024E0145C0D2C12D14C1EB4
:1021200084420FDD441C145D0A2C0BD18C1E8442AA
:1021300004D00D4C6478641C0B4D6C70441CE0B2F0
:1021400000230CE0145C202C09D0165C064C65784A
:10215000A41C04EB45171C465D1CEBB23E55441C09
:10216000E0B28842D8DBF0BD5C0000200648006881
:10217000401C054908600548006820B10348006814
:10218000401E0249086070470C0000200800002033
:1021900070B504460D4629462046FFF7B5FB00B151
:1021A00070BD29462046FFF7AFFF00BFF8E70000EB
:1021B00000B587B001210846FFF7CCF801211020B7
:1021C000FFF7E8F800208DF81A0001208DF81B00B9
:1021D00002208DF819008DF818000002059005A95D
:1021E0004648FEF792FF02208DF818004002059045
:1021F00005A94248FEF789FF07220A213F48FEF75A
:10220000CCFF072209213D48FEF7C7FF4FF4E1301C
:1022100001900020ADF80800ADF80A00ADF80C0000
:10222000ADF810000C20ADF80E0001A93448FFF7FE
:102230007FFC012240F225513148FFF754FC012276
:1022400040F224412E48FFF74EFC01212C48FFF7B5
:1022500007FC01210820FFF77DF801214804FFF762
:1022600089F8072206212748FEF797FF0722052154
:102270002448FEF792FF00208DF81A0001208DF807
:102280001B0002208DF818002020059002208DF8F8
:10229000190005A91B48FEF738FF02208DF8180029
:1022A0004020059005A91748FEF72FFF4FF4E130B5
:1022B00001900020ADF80800ADF80A00ADF80C0060
:1022C000ADF810000C20ADF80E0001A90E48FFF784
:1022D0002FFCFEF7D6FF012240F225510A48FFF7F6
:1022E00002FC012240F224410748FFF7FCFB0121D8
:1022F0000548FFF7B5FB07B000BD00000000024035
:1023000000100140000C024000440040012802D1AE
:10231000034A116003E0022801D1024A11607047AC
:10232000280000202C00002070B504460D462946E8
:102330002046FFF76CFC00BF80212046FFF79CFB86
:102340000028F9D070BD70B506460C46154604E06D
:1023500014F8011B3046FFF7E7FF281EA5F1010125
:10236000CDB2F5D170BD000010B5044612E00E48A4
:10237000006818B9FFF750FC0B490860FFF74CFCE8
:1023800009490968401AA04204D3002006490860A0
:10239000401E10BD054800780028E8D00020024902
:1023A000086000BFF5E70000040000205C0000208A
:1023B000DDDDDDDDDCBBBBDDDDDDDDDDDDDDDDDD92
:1023C00098888888888888887777777777888888D2
:1023D000855555566666666666666666666888886A
:1023E0008333333222222222222222222228888D63
:1023F00010240008000000205C000000481C0008B9
:102400006C2400085C000020C4040000581C000874
:1024100000000000000000000000000000000000BC
:1024200000000000000000000000000000000000AC
:10243000000000000000000000000000000000009C
:1024400000000000007A030A000000000000000005
:10245000010203040607080900000000010203044A
:0C24600001020304060708090000000048
:040000050800018965
:00000001FF
