:020000040800F2
:10000000100C00209D010008A9080008290800081C
:10001000A5080008110700082112000800000000D0
:10002000000000000000000000000000E50B0008D8
:10003000510700080000000079090008D50C0008ED
:10004000B7010008B7010008B7010008B7010008B0
:10005000B7010008B7010008B7010008B7010008A0
:10006000B7010008B7010008B7010008B701000890
:10007000B7010008B7010008B7010008B701000880
:10008000B7010008B7010008B7010008B701000870
:10009000B7010008B7010008B7010008B701000860
:1000A000B7010008B7010008B7010008B701000850
:1000B000AD0D0008B7010008B7010008B70100083E
:1000C000B7010008B7010008B7010008B701000830
:1000D000B7010008A90F00081D100008B7010008AB
:1000E000B7010008B7010008B7010008B701000810
:1000F000B7010008B7010008B7010008B701000800
:10010000B7010008E90A0008B7010008B7010008B4
:10011000B7010008B7010008B7010008B7010008DF
:10012000B7010008B7010008B7010008150700086B
:10013000B7010008B7010008B7010008B7010008BF
:10014000B7010008B7010008B7010008B7010008AF
:10015000B7010008B7010008B7010008B70100089F
:10016000B7010008B7010008B7010008B70100088F
:10017000B7010008B7010008B7010008B70100087F
:10018000B7010008B7010008DFF80CD000F0C6F88E
:10019000004800478D1A0008100C002006488047D0
:1001A00006480047FEE7FEE7FEE7FEE7FEE7FEE75C
:1001B000FEE7FEE7FEE7FEE7450D000889010008BF
:1001C00040EA01039B0703D009E008C9121F08C0D9
:1001D000042AFAD203E011F8013B00F8013B521E59
:1001E000F9D27047D2B201E000F8012B491EFBD2D0
:1001F00070470022F6E710B513460A460446194632
:10020000FFF7F0FF204610BD30B505462A460B46E5
:1002100012F8010B13F8014B08B1A042F8D01CB141
:10022000002802D06D1CF1E7284630BD421C10F8B2
:10023000011B0029FBD1801A704730B5044600200D
:10024000034600E05B1C934203D2E05CCD5C401BA4
:10025000F8D030BD034611F8012B00F8012B002A1D
:10026000F9D11846704770B5064600F0EBFF0468F8
:1002700005460A220021304600F018F82C6070BDB7
:1002800030B50B46014600202022012409E021FA66
:1002900002F59D4205D303FA02F5491B04FA02F563
:1002A0002844151EA2F10102F1DC30BD2DE9F04712
:1002B00091460F4680460446002614F8015B2DB196
:1002C00000F03EF80068405DC007F6D12B2D02D04B
:1002D0002D2D18D0641E4A463946204600F034F8C9
:1002E00027B13968A14201D1C7F8008071054FF0EC
:1002F00002040BD54042002803DD00F0A3FF046098
:10030000A007BDE8F08746F48066E4E70028F8DA45
:1003100000F098FF04606FF00040F2E7064C074DD4
:1003200006E0E06840F0010394E8070098471034C5
:10033000AC42F6D3FFF72CFFCC1F0008EC1F0008DF
:1003400000487047C81F00082DE9F05F824600781A
:10035000002715468B460AF10104B946302801D022
:100360009DB113E014F8010B0127782803D0582819
:1003700001D045B10AE00DB1102D07D1002710259D
:1003800014F8010B02E0082500E00A250026B0461B
:100390000EE005FB080005FB06F1012701EB104606
:1003A0001FFA80F8B6F5803F00D3B94614F8010B68
:1003B000294600F018F80028EBDABBF1000F05D051
:1003C0000FB1641E00E05446CBF80040B9F1000FB5
:1003D00006D000F037FF02210160C81EBDE8F09F83
:1003E00048EA0640FAE73A2800D2303820F02002E6
:1003F000412A01D3A2F13700884201D34FF0FF30E8
:100400007047000000B589B0202101A8FFF7F1FE78
:100410004FF4FA60022301AA09A100900AA001F09A
:10042000E3F918B14FF0FF3009B000BD09A101A8F0
:10043000FFF7EAFE10B94FF0FF30F5E70020F3E7D1
:100440002B4350494E3A000041542B4350494E3FF4
:1004500000000000524541445900000010B5044618
:10046000012C04D10448007801F03CF803E0034873
:10047000007801F037F810BD1A00002018000020A5
:1004800010B58AB0202102A8FFF7B3FE4FF4FA603E
:10049000022302AA0CA100900DA001F0A5F918B149
:1004A0004FF0FF300AB010BD0DF10B00FFF7DBFE7F
:1004B000044600EBD4704010A4EB400010B94FF09C
:1004C000FF30EFE70020EDE72B435245473A0000AD
:1004D00041542B435245473F0000000010B50446ED
:1004E000012C04D10448007800F0FCFF03E003482D
:1004F000007800F0F7FF10BD1B000020180000205E
:1005000010B541F28833022204A105A001F01AF9C6
:1005100010B14FF0FF3010BD0020FCE74F4B000042
:1005200041542B5149434C4F53453D30000000008E
:1005300010B50446012C04D10448007800F0D2FF25
:1005400003E00348007800F0CDFF10BD1B00002041
:100550001D00002010B54FF4FA63022204A105A08B
:1005600001F0F0F810B14FF0FF3010BD0020FCE7B3
:100570004F4B000041542B51494F50454E3D312CBB
:10058000302C22544350222C2234372E3130362E38
:100590003232312E313733222C3434332C302C315B
:1005A0000000000010B50446012C03D0024800787A
:1005B00000F098FF10BD00001800002030B58DB08D
:1005C00004460D46302101A8FFF713FE14480078B9
:1005D000002822D013A101A8FFF73CFE4FF4FA63D4
:1005E00002221AA101A801F0ADF898B119480078CB
:1005F000401C1849087008460078032808DD164892
:10060000007800F06FFF002005490870114908705C
:100610000DB030BD00200F49087000BFF8E70000A2
:100620001E00002041542B514953454E4445583D2E
:10063000302C226161306130313232333334343521
:1006400035363637373838626222000053454E441B
:10065000204F4B001F0000201B00002010B54FF45E
:10066000FA63022204A105A001F06CF810B14FF06A
:10067000FF3010BD0020FCE74F4B000041542B51D0
:100680004953544154453F0010B50446012C04D150
:100690000448007800F026FF03E00348007800F0EB
:1006A00021FF10BD1C0000201D00002010B54FF4DC
:1006B0007A73022204A105A001F044F810B14FF0B2
:1006C000FF3010BD0020FCE74F4B000041540000FC
:1006D00010B5044624B10648007800F003FF06E098
:1006E00004A000F09FFD0948007800F0FBFE10BD5B
:1006F000190000200D0A3E3E3E2741542720636D1D
:1007000064206572726F720D0A00000018000020EC
:1007100000BFFEE710B500F0FBF910BD0246094B23
:100720009A4201D2084801E00648103801F000530F
:100730001BB1064B0B40C36002E0044B0B408360CF
:100740007047000010640240006002407D0F7D0F82
:100750007047F0B50A4600210023002400BF3DE0A9
:10076000012505FA01F3156805EA03049C4234D11A
:1007700005684F000326BE40B543056015794E005D
:10078000B5400668354305601579012D02D015790D
:10079000022D16D185684F000326BE40B543856003
:1007A00055794E00B5408668354385604568012619
:1007B0008E40B5434560456896798E40B6B2354364
:1007C0004560C5684F000326BE40B543C560D57976
:1007D0004E00B540C6683543C560491C1029BFD3DB
:1007E000F0BDF0B5002300244D07ED0E02FA05F32D
:1007F000CE1000F1200555F826504E07F70E0F26B3
:10080000BE40B543CF1000F1200646F82750CE1069
:1008100000F1200555F8265045EA0304CE1000F1FA
:10082000200545F82640F0BD00BFFEE71CB50121BC
:10083000892000F0A3F84020009001208DF80400EA
:1008400000208DF8060001208DF8070000208DF8AB
:10085000050069461048FFF77CFF4FF400600090E8
:1008600069460E48FFF775FF4FF4805000906946C7
:100870000A48FFF76EFF4FF4006000906946084891
:10088000FFF767FF402004490883400103491831FE
:100890000880400008801CBD00000240001C02408F
:1008A000000C024000BFFEE7704708B54FF4A0609F
:1008B00000F058F825208DF8000002208DF8010086
:1008C0008DF8020001208DF80300684600F00EF854
:1008D00026208DF8000001208DF801008DF802001F
:1008E0008DF80300684600F001F808BD70B50021DE
:1008F00000230F22C4781CB3174C246804F4E0646E
:10090000C4F5E064C4F30721C1F10404E3B20A4171
:1009100044789C40E1B28478144021430C07210EB6
:100920000E4C05786155047804F01F050124AC4095
:1009300005786D11AD0005F1E025C5F8004109E02D
:10094000047804F01F050124AC40054D06787611AB
:1009500045F8264070BD00000CED00E000E400E02A
:1009600080E100E002490143024A11607047000043
:100970000000FA050CED00E07047000029B1064ABE
:1009800012680243044B1A6004E0034A126882436F
:10099000014B1A60704700003038024029B1064A06
:1009A00012680243044B1A6004E0034A126882434F
:1009B000014B1A60704700004038024029B1064AD6
:1009C00012680243044B1A6004E0034A126882432F
:1009D000014B1A607047000044380240F0B5002116
:1009E00000220024022500260223324F3F6807F030
:1009F0000C0121B1042905D0082937D105E02E4F7B
:100A0000076036E02D4F076033E02A4F3F1F3F68F5
:100A1000C7F38056274F3F1F3F6807F03F036EB173
:100A2000264FB7FBF3F7DFF88CC0ACF1040CDCF811
:100A300000C0CCF3881C07FB0CF40CE01E4FB7FB86
:100A4000F3F7DFF870C0ACF1040CDCF800C0CCF3B5
:100A5000881C07FB0CF4174F3F1F3F68C7F3014783
:100A60007F1C7D00B4FBF5F7076002E0124F0760C2
:100A700000BF00BF0F4F3F6807F0F0010909104F9A
:100A80007A5C0768D74047600A4F3F6807F4E05137
:100A9000890A0B4F7A5C4768D7408760054F3F68EB
:100AA00007F46041490B064F7A5C4768D740C7603E
:100AB000F0BD0000083802400024F40000127A0063
:100AC000740000200149086070470000382C014084
:100AD00001460020034A12680A400AB1012000E0E2
:100AE00000207047342C014010B500F025F810BDEF
:100AF00029B1064A12680243044B1A6004E0034A13
:100B000012688243014B1A60704700003C2C014080
:100B100010B50748006800F0C05040B101200549F9
:100B200008604FF0C25102485830FFF7F7FD10BD82
:100B3000006402404800002010B54FF48070FFF7B9
:100B4000C7FF50B10020254908704FF48070FFF7AF
:100B5000B9FF01202249086037E00220FFF7B8FF03
:100B600030B10220FFF7AEFF02201C4908702CE0D4
:100B70000820FFF7ADFF30B10820FFF7A3FF0420E6
:100B80001649087021E02020FFF7A2FF30B1202095
:100B9000FFF798FF06201149087016E01020FFF7B4
:100BA00097FF30B11020FFF78DFF05200B4908702B
:100BB0000BE04FF40070FFF78BFF30B14FF4007083
:100BC000FFF780FF07200549087000214CF23A30FA
:100BD000FFF78EFF0148007810BD000040000020A4
:100BE00044000020704700000CB5002001900090E8
:100BF0003448006840F480303249086000BF314812
:100C0000006800F4003000900198401C01900098AA
:100C100018B90198B0F5A04FF1D12A48006800F446
:100C2000003010B10120009001E0002000900098F9
:100C3000012846D123484030006840F080502149C7
:100C4000403108602048006840F440401E49086078
:100C50001C48083000681B490831086008460068D5
:100C600040F4004008600846006840F4A050086066
:100C70001648091F0860081F006840F08070091FAF
:100C8000086000BF0F48006800F000700028F9D02D
:100C900040F205700E4908600A480830006820F0EC
:100CA00003000849083108600846006840F0020067
:100CB000086000BF03480830006800F00C000828F6
:100CC000F8D10CBD003802400070004008544007C5
:100CD000003C024010B500F08BFF10BD30B5164847
:100CE00000684FF47A72B0FBF2F1481EB0F1807FD9
:100CF00001D301201BE0481E4FF0E0225061501745
:100D00000F22002807DA13071D0E0C4B00F00F040A
:100D1000241F1D5503E013071C0E094B1C5400BF74
:100D200000204FF0E022906107201061002008B100
:100D300000BFFEE730BD00006000002018ED00E0BD
:100D400000E400E010B51548006840F47000134955
:100D500008601348006840F0010011490860002055
:100D60000F49083108600E4800680E4908400C49D8
:100D700008600D48091D0860081F006820F48020E5
:100D8000091F0860002006490C310860FFF72CFF9E
:100D90004FF0006001498039086010BD88ED00E027
:100DA00000380240FFFFF6FE1030002410B501218C
:100DB000880700F021F848B10548006880F4006019
:100DC000034908600121880700F007F810BD000002
:100DD000141C0240CA4302827047CA430282704711
:100DE00021B1028842F00102028004E002884FF63D
:100DF000FE731A400280704730B50246002000237F
:100E00000024158A05EA0103958905EA010413B156
:100E10000CB1012000E0002030BD1AB183890B43E2
:100E2000838102E083898B43838170470EB5012162
:100E30000846FFF7B3FD42F20F70019042F2CF0077
:100E4000ADF800000020ADF80800ADF802006946DA
:100E50004FF0804000F00EF801218807FFF7BAFF3D
:100E6000012211469007FFF7D8FF01218807FFF7FD
:100E7000B7FF0EBD00220288184B98420ED0184BC7
:100E800098420BD0B0F1804F08D0164B984205D055
:100E9000154B984202D0154B984204D14FF68F73F0
:100EA0001A404B881A43124B984207D0114B984274
:100EB00004D04FF6FF431A400B891A4302804B6857
:100EC000C3620B880385054B984202D0044B9842BD
:100ED00001D18B7A03860123838270470000014091
:100EE000000401400004004000080040000C0040E5
:100EF000001000400014004010B500F003F8FFF7A8
:100F000095FF10BD08B54FF4E060FFF72BFD1C20E6
:100F10008DF8000000208DF8010003208DF80200FC
:100F200001208DF803006846FFF7E0FC08BD0000D3
:100F30002DE9F047074689460025002600242CE0CD
:100F400004EB8400174901EBC000406A18B304EBBE
:100F500084000A4602EBC0013846FFF755F9054602
:100F6000CDB104EB84010F4A02EBC100FFF75EF93B
:100F7000C6B22846FFF75AF9801B00F0FF08A819EF
:100F800004EB8401074B03EBC1014A6A41469047D9
:100F90000120BDE8F087601CC4B2082CD0DB002023
:100FA000F7E700001005002010B5002440F225519D
:100FB000164800F06CF878B1144800F021F9144993
:100FC000144A1278885413480078802804DA1148AB
:100FD0000078401C0F49087040F224410B4800F093
:100FE00056F890B10948848804880B48006848B1D5
:100FF00008480078012805DD064801780448064ABB
:101000001268904700200349087010BD001001408D
:10101000900700205D0000204C00002010B540F239
:1010200025510B4800F033F888B1094800F0E8F882
:101030000849094A1278885407480078802804DA59
:1010400005480078401C0449087000F0F7FD10BD09
:1010500000440040100700205400002021B1828984
:1010600042F40052828104E082894DF6FF731A40F7
:101070008281704702460020B1F5007F00D100BF99
:1010800013880B400BB1012000E00020704770B5C1
:101090000246002400230025002040F66A16B142D3
:1010A00000D100BFC1F3421501F01F03012606FA6B
:1010B00003F3012D02D19689334006E0022D02D1BF
:1010C000168A334001E0968A33400C12012606FA54
:1010D00004F41688344013B10CB1012000E0002064
:1010E00070BDF0B50346002400260025002040F620
:1010F0006A17B94200D100BF1846C1F3421401F08B
:101100001F06012707FA06F5012C01D10C3004E077
:10111000022C01D1103000E014301AB107682F43BF
:10112000076002E00768AF430760F0BD2DE9FF47A5
:1011300005460E460024A14600BFA046B08900B176
:1011400000BF2C8A24F44054F08804432C82AC89DC
:1011500041F20C608443B0883189084371890843A7
:101160000443AC81AC8A24F44074B0890443AC825B
:101170006846FFF733FC2048854202D01F4885426D
:1011800002D1DDF80C9001E0DDF80890A88900F4A8
:10119000004040B109EBC90000EB0910316849007B
:1011A000B0FBF1F707E009EBC90000EB091031686B
:1011B0008900B0FBF1F76420B7FBF0F004012009CF
:1011C000642101FB1078A88900F4004040B132206E
:1011D00000EBC800B0FBF1F000F00700044308E0AA
:1011E000322000EB08106421B0FBF1F000F00F009A
:1011F00004432C81BDE8FF8700100140001401402A
:1012000001468888C0F308007047C1F30802828055
:10121000704700000148006870470000300000205F
:1012200000BFFEE70FB4054B10B503A9044A0298AE
:1012300000F01CF810BC5DF814FB0000691A0008EF
:1012400084000020004870478800002002E008C8A1
:10125000121F08C1002AFAD170477047002001E030
:1012600001C1121F002AFBD1704700002DE9FF4F7A
:101270008BB09A460F460546002606E025280BD07F
:1012800052460D9990476D1C761C28780028F5D1A0
:101290000FB03046BDE8F08F0024A046012260491F
:1012A00000E0044315F8013F203B02FA03F0084236
:1012B000F7D128782E2817D115F8010F44F004042F
:1012C0002A280ED06FF02F022878A0F130010929CA
:1012D0000AD808EB880102EB410100EB01086D1C04
:1012E000F2E757F8048B6D1C287869283ED006DC9D
:1012F0000028CDD063280BD0642804D136E07328B1
:1013000010D075284BD052460D999047761C85E039
:1013100017F8040B8DF8000000208DF80100E94655
:10132000012003E057F8049B4FF0FF3061074FF0B6
:10133000000401D40AE0641C44450DDA8442FADB5F
:1013400019F804100029F6D106E0641C8442FCDB85
:1013500019F804100029F8D1264404E019F8010B0B
:1013600052460D999047641EF8D257E001CF4FF0D6
:101370000A0B002802DA40422D2102E0210504D5A3
:101380002B218DF82410012103E0E10705D0202155
:10139000F7E70DF1200908910CE00021F9E701CFF2
:1013A0004FF00A0BF9E75946FEF76AFF01F13002E8
:1013B00009F8012D0028F6D1ADEB090000F1200B52
:1013C000600701D44FF00108D84502DDA8EB0B00FF
:1013D00000E000208046002406E009A85246005D97
:1013E0000D999047641C761C08988442F5DB04E054
:1013F000302052460D999047761CB8F10001A8F1B3
:101400000108F5DC05E019F8010B52460D999047EB
:10141000761CBBF10001ABF1010BF4DC6D1C34E771
:101420000928010010B51D4B1D4A03214FF4FA6035
:1014300000F09CFA1B4908701B4B1C4A05214FF415
:101440007A6000F093FA1A4908701A4B1A4A092177
:1014500042F2107000F08AFA18490870184B194AC5
:1014600001214FF4FA6000F081FA17490870174B18
:10147000174A01214FF47A7000F078FA1549087084
:10148000154B164A01214FF47A7000F06FFA144997
:1014900008700448007800F025F810BDD106000857
:1014A000AD060008180000205D04000805040008CF
:1014B00019000020DD040008810400081A00002043
:1014C000890600085D0600081B000020A50500082D
:1014D000550500081C000020310500080105000822
:1014E0001D00002010B50446012C1EDB102C1CDC56
:1014F000601E00EB40000F4901EB8000406880B1A6
:10150000601E0D49087001200C4908700A480078D7
:1015100000EB4000074901EB800080780849087023
:1015200010BD08A0FFF77EFEFAE70EA0FFF77AFED7
:1015300000BFF5E750060020240000202600002010
:10154000270000200D0A3E3E3E3E6E6F74207265FD
:10155000676973746572207468697320636D6420B1
:101560000D0A00000D0A3E3E3E3E6F766572207405
:101570006865206D61782073697A65206F662074D4
:1015800061626C650D0A000010B5324800780028D1
:1015900059D03148006818B9FFF73CFE2E49086061
:1015A000FFF738FE2C490968401A2C49097801EBED
:1015B00041012B4A32F82110884249D9002026499E
:1015C00008602649097801EB410102EB8101486876
:1015D000804708B32348007820B122480078401E95
:1015E000204908701F480078A8B9002019490870E0
:1015F0001A48007800EB4000194901EB8000806830
:1016000048B11648007800EB40000A4602EB800023
:1016100081680020884710BD00200E4908700F48DF
:10162000007800EB40000E4901EB8000806878B143
:101630000A48007800EB40000A4602EB800081680F
:101640000120884704E0002006490870024908602C
:1016500000BFE0E726000020280000202400002032
:10166000500600202700002010B50249022000F09B
:1016700017FC10BD1D1C00082DE9F04105460E4663
:10168000002423E004EB8400144911F83000D8B999
:1016900004EB840001EBC000406AA8B92846FEF7BD
:1016A000C5FD074604EB84010C4A02EBC1003A4633
:1016B0002946FEF785FD04EB8400084901EBC000D4
:1016C00046620020BDE8F081601CC4B2082CD9DB62
:1016D000294603A0FFF7A6FDFF20F3E71005002031
:1016E000637265617465207572633A257320636F58
:1016F0006D6D616E64206661696C65640D0A000041
:101700002DE9F0410446002700250D484078A0420D
:1017100001DB002C02DC0020BDE8F081084DAD1C8F
:10172000002607E02846FEF781FD401CC7B23D4475
:10173000701CC6B2601EB042F4DC2846ECE7000024
:101740008C0400202DE9F04707460C4615461E463E
:101750004FF000083146384600F0ACF818B14FF0B1
:10176000FF30BDE8F0872846FFF7CAFFB0F1000858
:1017700005D10CA0FFF756FD4FF0FF30F1E72046F2
:10178000FEF754FD81464A4641462046FEF755FD88
:1017900028B10DA0FFF746FD4FF0FF30E1E7002034
:1017A000DFE700000D0A3E3E3E3E3E676574207452
:1017B0006865206C696E6520627566666572206674
:1017C00061696C65640D0A000D0A3E3E3E3E3E7244
:1017D00065706C79206973206E6F74206578706510
:1017E000637465640D0A00002DE9F05F81460C46C4
:1017F00015461E46DDF828A00027B8465146484643
:1018000000F058F810B1781EBDE8F09F3046FFF7A1
:1018100077FFB0F1000805D112A0FFF703FD4FF0EC
:10182000FF30F1E72046FEF701FD83465A46414668
:101830002046FEF702FD28B113A0FFF7F3FC4FF09E
:10184000FF30E1E72046FEF7F1FC00EB08073846E1
:10185000FEF7ECFC83465A4639462846FEF7B0FCB4
:101860000020D1E70D0A3E3E3E3E3E67657420747F
:101870006865206C696E65206275666665722066B3
:1018800061696C65640D0A000D0A3E3E3E3E3E7481
:1018900068652068656164206F66207265706C7988
:1018A000206973206E6F7420657870656374656459
:1018B0000D0A00002DE9F04104460D46264600F0D1
:1018C00047F82046FEF7B2FCC7B23A4621460D481B
:1018D00000F003FB0CA13046FEF796FC20B9022273
:1018E00009A1084800F0F9FA284600F007FB38B1D2
:1018F000214606A0FFF796FC4FF0FF30BDE8F081CF
:101900000020FBE7004400400D0A00000D0A3E3EA7
:101910003E3E3E25733A7265706C792074696D6540
:101920006F75740D0A00000070B504460D46A01CCA
:10193000FEF799FC18B901200349087003E0034839
:101940000078FFF7CFFD70BD1E0000201D000020B5
:1019500010B580210448FEF74CFC00200249891E86
:101960004870087010BD00008E0400202DE9F04181
:1019700004460D4616461F4616480078102824DCFB
:101980001448007800EB4000134901EB800085709B
:101990001048007800EB400021F820400D48007806
:1019A00000EB400001EB800087600A48007800EB04
:1019B000400001EB8000466006480078401C054965
:1019C000087008460078BDE8F08104A0FFF72AFC03
:1019D0000020F8E725000020500600200D0A3E3EBA
:1019E0003E3E6F76657220746865206D6178207365
:1019F000697A65206F66207461626C650D0A00006B
:101A000010B5FFF731FEFFF70DFD064906A0FFF701
:101A100033FE094909A0FFF72FFE0D490DA0FFF77E
:101A20002BFE10BDE91C00082B51495552433A20AA
:101A30002272656376220000C91C00082B514955AB
:101A400052433A2022636C6F7365642200000000E9
:101A5000291900082B51494F50454E3A20000000EB
:101A600010B5FFF791FD10BD70B504460D46E1B20B
:101A70000548FFF7CAFB00BF80210348FFF7FAFAC9
:101A80000028F9D0204670BD00100140FFF726F96C
:101A9000FEF7CCFEFFF730FA00F05CF9FFF7B0FF7D
:101AA0004020114908834001104908804000088007
:101AB00018E0FFF7D5FF0E48006818B9FFF7AAFB3A
:101AC0000B490860FFF7A6FB09490968401A40F670
:101AD000B831884206D9002005490860042105482C
:101AE000FEF76CFDE5E7000000000240181C024014
:101AF00000000020040000202DE9F047074688463A
:101B00004FF000093D46224E0024B8F1800F05DB5E
:101B1000802120A0FFF786FBBDE8F0871C48801ECF
:101B20000078002831D101201949891E087028E069
:101B300025A12846FEF768FB81461548801E40789F
:101B4000401C1349891E4870B9F1000F05D10020CF
:101B500008701EA0FFF766FBDEE7002089F8000092
:101B60002846FEF763FBC4B224B12246294630461C
:101B7000FEF726FB264400203070761CA01CC4B261
:101B8000254407EB0800A842D2D800BFC4E70000F4
:101B90008E0400200D0A3E3E3E3E3E746865207273
:101BA0006573706F6E6420646174612073697A6517
:101BB000206F76657220746865206D617820736986
:101BC0007A652025640D0A000D0A00000D0A3E3ECC
:101BD0003E3E3E726573706F6E64206572726F7206
:101BE0002C776974686F757420656E640D0A000047
:101BF00010B500F02FF807480068401C0549086040
:101C00000548006820B104480068401E0249086089
:101C100010BD0000300000202C00002070B50446EC
:101C20000D4629462046FFF783F900B170BD2946CD
:101C30002046FFF761FF00BFF8E7000000200349DE
:101C40000860012002490870704700005800002019
:101C50005C00002010B51648007840B315480068B5
:101C600018B9FFF7D7FA13490860FFF7D3FA1149FB
:101C70000968401A14281AD900200E4908600C4936
:101C800008700D4802780D490D4800F026F90D48FE
:101C9000006848B108480078012805DD0648017849
:101CA0000648084A1268904700200349087010BD92
:101CB0005C00002058000020540000201007002085
:101CC000001001405000002070B504460D46044845
:101CD0000078FFF707FC00200249087070BD000083
:101CE0001D0000201E0000202DE9F04705468A4611
:101CF0004FF000082C460026B146002760783038A7
:101D000000F0FF09E41C0FA12046FEF77DFA06460D
:101D1000002030702046FEF7A6FAC7B22046FEF734
:101D200085FA801C0444002004E0215C064A11541A
:101D3000411CC8B2B842F8DB034904A0FFF772FAAD
:101D4000BDE8F0870D0A00008C0000207265633A40
:101D50002025730000B587B001210846FEF70EFE6E
:101D600001211020FEF72AFE00208DF81A00012024
:101D70008DF81B0002208DF819008DF81800000264
:101D8000059005A94348FEF7E4FC02208DF81800F1
:101D90004002059005A93F48FEF7DBFC07220A2117
:101DA0003C48FEF71EFD072209213A48FEF719FDBF
:101DB0004FF4E13001900020ADF80800ADF80A00C2
:101DC000ADF80C00ADF810000C20ADF80E0001A924
:101DD0003148FFF7ABF9012240F225512E48FFF7B9
:101DE00080F9012240F224412B48FFF77AF90121C2
:101DF0002948FFF733F901210846FEF7BFFD01210D
:101E00004804FEF7CBFD072203212248FEF7E9FC38
:101E1000072202211F48FEF7E4FC00208DF81A007B
:101E200001208DF81B0002208DF818000420059079
:101E300002208DF8190005A91648FEF78AFC022039
:101E40008DF818000820059005A91248FEF781FCBE
:101E50004FF4E13001900020ADF80800ADF80A0021
:101E6000ADF80C00ADF810000C20ADF80E0001A983
:101E70000A48FFF75BF9FEF718FD012240F22551F1
:101E80000648FFF72EF901210448FFF7E7F807B0ED
:101E900000BD00000000024000100140004400406E
:101EA000012802D1034A116003E0022801D1024A4D
:101EB000116070474C0000205000002070B50446AF
:101EC0000D4629462046FFF7A0F900BF8021204695
:101ED000FFF7D0F80028F9D070BD70B506460C4663
:101EE000154604E014F8011B3046FFF7E7FF281EF3
:101EF000A5F10101CDB2F5D170BD000010B50446C9
:101F000012E00E48006818B9FFF784F90B49086021
:101F1000FFF780F909490968401AA04204D300205C
:101F200006490860401E10BD054800780028E8D02A
:101F300000200249086000BFF5E7000020000020F3
:101F40008C0400200040404040404040404041411F
:101F5000414141404040404040404040404040407E
:101F60004040404040050202020202020202020218
:101F70000202020202202020202020202020200215
:101F800002020202020290909090909010101010A5
:101F90001010101010101010101010101010101041
:101FA00002020202020288888888888808080808D5
:101FB00008080808080808080808080808080808A1
:101FC0000202020240000000451F0008EC1F00084A
:101FD000000000208C0000004C120008782000084F
:101FE0008C000020840B00005C1200080000000040
:101FF000AA0B01BB00000000000000000000000070
:1020000000000000000000000000000000000000D0
:1020100000000000000000000000000000000000C0
:1020200000000000000000000000000000000000B0
:1020300000000000000000000000000000000000A0
:10204000000000000000000000000000007A030A09
:102050000000000000000000010203040607080958
:10206000000000000102030401020304060708093E
:08207000000000000000000068
:040000050800018965
:00000001FF
