:020000040800F2
:10000000F80E00209D010008E506000865060008BE
:10001000E10600084D05000865100008000000001A
:10002000000000000000000000000000210A00089D
:100030008D05000800000000B5070008110B00083E
:10004000B7010008B7010008B7010008B7010008B0
:10005000B7010008B7010008B7010008B7010008A0
:10006000B7010008B7010008B7010008B701000890
:10007000B7010008B7010008B7010008B701000880
:10008000B7010008B7010008B7010008B701000870
:10009000B7010008B7010008B7010008B701000860
:1000A000B7010008B7010008B7010008B701000850
:1000B000E90B0008B7010008B7010008B701000804
:1000C000B7010008B7010008B7010008B701000830
:1000D000B7010008ED0D0008610E0008B701000827
:1000E000B7010008B7010008B7010008B701000810
:1000F000B7010008B7010008B7010008B701000800
:10010000B701000825090008B7010008B701000879
:10011000B7010008B7010008B7010008B7010008DF
:10012000B7010008B7010008B70100085105000831
:10013000B7010008B7010008B7010008B7010008BF
:10014000B7010008B7010008B7010008B7010008AF
:10015000B7010008B7010008B7010008B70100089F
:10016000B7010008B7010008B7010008B70100088F
:10017000B7010008B7010008B7010008B70100087F
:10018000B7010008B7010008DFF80CD000F0A8F8AC
:1001900000480047D9180008F80E0020064880479C
:1001A00006480047FEE7FEE7FEE7FEE7FEE7FEE75C
:1001B000FEE7FEE7FEE7FEE7810B00088901000885
:1001C00040EA01039B0703D009E008C9121F08C0D9
:1001D000042AFAD203E011F8013B00F8013B521E59
:1001E000F9D27047D2B201E000F8012B491EFBD2D0
:1001F00070470022F6E710B513460A460446194632
:10020000FFF7F0FF204610BD30B505462A460B46E5
:1002100012F8010B13F8014B08B1A042F8D01CB141
:10022000002802D06D1CF1E7284630BD421C10F8B2
:10023000011B0029FBD1801A704730B5044600200D
:10024000034600E05B1C934203D2E05CCD5C401BA4
:10025000F8D030BD70B5064600F016FF04680546BC
:100260000A220021304600F002F82C6070BD2DE912
:10027000F04791460F4680460446002614F8015B7D
:100280002DB100F03FF80068405DC007F6D12B2D7E
:1002900002D02D2D18D0641E4A463946204600F063
:1002A00035F827B13968A14201D1C7F8008071053E
:1002B0004FF002040BD54042002803DD00F0E4FEBD
:1002C0000460A007BDE8F08746F48066E4E70028F4
:1002D000F8DA00F0D9FE04606FF00040F2E70000A9
:1002E000064C074D06E0E06840F0010394E8070083
:1002F00098471034AC42F6D3FFF74AFF2C1E000893
:100300004C1E000800487047281E00082DE9F05FC9
:1003100082460078002715468B460AF10104B9464B
:10032000302801D09DB113E014F8010B0127782883
:1003300003D0582801D045B10AE00DB1102D07D1E6
:100340000027102514F8010B02E0082500E00A251B
:100350000026B0460EE005FB080005FB06F101276C
:1003600001EB10461FFA80F8B6F5803F00D3B9467E
:1003700014F8010B294600F018F80028EBDABBF15D
:10038000000F05D00FB1641E00E05446CBF80040CA
:10039000B9F1000F06D000F077FE02210160C81EFF
:1003A000BDE8F09F48EA0640FAE73A2800D2303824
:1003B00020F02002412A01D3A2F13700884201D364
:1003C0004FF0FF307047000000B589B0202101A830
:1003D000FFF70FFF4FF4FA60022301AA09A1009072
:1003E0000AA001F0B1F818B14FF0FF3009B000BD1C
:1003F00009A101A8FFF708FF10B94FF0FF30F5E79A
:100400000020F3E72B4350494E3A000041542B4360
:1004100050494E3F00000000524541445900000041
:1004200010B58AB0202102A8FFF7E3FE4FF4FA606E
:10043000022302AA0CA100900DA001F085F818B1CA
:100440004FF0FF300AB010BD0DF10B00FFF702FFB7
:10045000044600EBD4704010A4EB400010B94FF0FC
:10046000FF30EFE70020EDE72B435245473A00000D
:1004700041542B435245473F0000000010B541F264
:100480008833022204A105A000F0FCFF10B14FF058
:10049000FF3010BD0020FCE74F4B000041542B51B2
:1004A00049434C4F53453D300000000010B54FF418
:1004B000FA63022204A105A000F0E4FF10B14FF09E
:1004C000FF3010BD0020FCE74F4B000041542B5182
:1004D000494F50454E3D312C302C22544350222C54
:1004E0002234372E3130362E3232312E313733220C
:1004F0002C3434332C302C310000000010B54FF474
:10050000FA63022204A105A000F0BCFF10B14FF075
:10051000FF3010BD0020FCE74F4B000041542B5131
:100520004953544154453F0010B54FF47A730222A9
:1005300004A105A000F0A6FF10B14FF0FF3010BDE0
:100540000020FCE74F4B00004154000000BFFEE7D5
:1005500010B500F0FBF910BD0246094B9A4201D2DA
:10056000084801E00648103801F000531BB1064B63
:100570000B40C36002E0044B0B40836070470000F7
:1005800010640240006002407D0F7D0F7047F0B59F
:100590000A4600210023002400BF3DE0012505FAA2
:1005A00001F3156805EA03049C4234D105684F0045
:1005B0000326BE40B543056015794E00B540066878
:1005C000354305601579012D02D01579022D16D11C
:1005D00085684F000326BE40B543856055794E00BF
:1005E000B540866835438560456801268E40B54331
:1005F0004560456896798E40B6B235434560C5681A
:100600004F000326BE40B543C560D5794E00B540C6
:10061000C6683543C560491C1029BFD3F0BDF0B58D
:10062000002300244D07ED0E02FA05F3CE1000F171
:10063000200555F826504E07F70E0F26BE40B5434D
:10064000CF1000F1200646F82750CE1000F120050B
:1006500055F8265045EA0304CE1000F1200545F870
:100660002640F0BD00BFFEE71CB50121892000F047
:10067000A3F84020009001208DF8040000208DF8A0
:10068000060001208DF8070000208DF8050069465E
:100690001048FFF77CFF4FF40060009069460E4859
:1006A000FFF775FF4FF48050009069460A48FFF746
:1006B0006EFF4FF40060009069460848FFF767FF3F
:1006C0004020044908834001034918310880400054
:1006D00008801CBD00000240001C0240000C0240CB
:1006E00000BFFEE7704708B54FF4A06000F058F86F
:1006F00025208DF8000002208DF801008DF8020001
:1007000001208DF80300684600F00EF826208DF8D1
:10071000000001208DF801008DF802008DF8030023
:10072000684600F001F808BD70B5002100230F22D3
:10073000C4781CB3174C246804F4E064C4F5E06486
:10074000C4F30721C1F10404E3B20A4144789C4098
:10075000E1B28478144021430C07210E0E4C057839
:100760006155047804F01F050124AC4005786D1133
:10077000AD0005F1E025C5F8004109E0047804F07A
:100780001F050124AC40054D0678761145F826403A
:1007900070BD00000CED00E000E400E080E100E04E
:1007A00002490143024A1160704700000000FA0547
:1007B0000CED00E07047000029B1064A12680243C0
:1007C000044B1A6004E0034A12688243014B1A602A
:1007D000704700003038024029B1064A12680243CF
:1007E000044B1A6004E0034A12688243014B1A600A
:1007F000704700004038024029B1064A126802439F
:10080000044B1A6004E0034A12688243014B1A60E9
:100810007047000044380240F0B500210022002457
:10082000022500260223324F3F6807F00C0121B158
:10083000042905D0082937D105E02E4F076036E09E
:100840002D4F076033E02A4F3F1F3F68C7F38056A4
:10085000274F3F1F3F6807F03F036EB1264FB7FB9E
:10086000F3F7DFF88CC0ACF1040CDCF800C0CCF37B
:10087000881C07FB0CF40CE01E4FB7FBF3F7DFF806
:1008800070C0ACF1040CDCF800C0CCF3881C07FB92
:100890000CF4174F3F1F3F68C7F301477F1C7D00D3
:1008A000B4FBF5F7076002E0124F076000BF00BF1E
:1008B0000F4F3F6807F0F0010909104F7A5C076895
:1008C000D74047600A4F3F6807F4E051890A0B4F51
:1008D0007A5C4768D7408760054F3F6807F46041FE
:1008E000490B064F7A5C4768D740C760F0BD0000EF
:1008F000083802400024F40000127A005C00002056
:100900000149086070470000382C01400146002072
:10091000034A12680A400AB1012000E00020704733
:10092000342C014010B500F025F810BD29B1064A5D
:1009300012680243044B1A6004E0034A12688243BF
:10094000014B1A60704700003C2C014010B507486D
:10095000006800F0C05040B10120054908604FF028
:10096000C25102485830FFF7F7FD10BD0064024045
:100970003000002010B54FF48070FFF7C7FF50B172
:100980000020254908704FF48070FFF7B9FF01205F
:100990002249086037E00220FFF7B8FF30B102209B
:1009A000FFF7AEFF02201C4908702CE00820FFF77B
:1009B000ADFF30B10820FFF7A3FF042016490870EF
:1009C00021E02020FFF7A2FF30B12020FFF798FFA1
:1009D00006201149087016E01020FFF797FF30B18C
:1009E0001020FFF78DFF05200B4908700BE04FF436
:1009F0000070FFF78BFF30B14FF40070FFF780FFFE
:100A000007200549087000214CF23A30FFF78EFFAD
:100A10000148007810BD0000280000202C000020B4
:100A2000704700000CB50020019000903448006829
:100A300040F480303249086000BF3148006800F45B
:100A4000003000900198401C0190009818B901985E
:100A5000B0F5A04FF1D12A48006800F4003010B181
:100A60000120009001E0002000900098012846D16C
:100A700023484030006840F08050214940310860F0
:100A80002048006840F440401E4908601C48083077
:100A900000681B49083108600846006840F40040BF
:100AA00008600846006840F4A05008601648091F16
:100AB0000860081F006840F08070091F086000BFD0
:100AC0000F48006800F000700028F9D040F205706F
:100AD0000E4908600A480830006820F00300084901
:100AE000083108600846006840F00200086000BF56
:100AF00003480830006800F00C000828F8D10CBD4D
:100B0000003802400070004008544007003C02409A
:100B100010B500F0C1FF10BD30B5164800684FF4A5
:100B20007A72B0FBF2F1481EB0F1807F01D3012050
:100B30001BE0481E4FF0E022506150170F220028A2
:100B400007DA13071D0E0C4B00F00F04241F1D5570
:100B500003E013071C0E094B1C5400BF00204FF08C
:100B6000E022906107201061002008B100BFFEE77D
:100B700030BD00004800002018ED00E000E400E077
:100B800010B51548006840F4700013490860134818
:100B9000006840F001001149086000200F49083149
:100BA00008600E4800680E4908400C4908600D486E
:100BB000091D0860081F006820F48020091F0860D4
:100BC000002006490C310860FFF72CFF4FF0006051
:100BD00001498039086010BD88ED00E0003802400E
:100BE000FFFFF6FE1030002410B50121880700F049
:100BF00021F848B10548006880F4006003490860A6
:100C00000121880700F007F810BD0000141C024005
:100C1000CA4302827047CA430282704721B10288E8
:100C200042F00102028004E002884FF6FE731A408F
:100C30000280704730B50246002000230024158A48
:100C400005EA0103958905EA010413B10CB10120FD
:100C500000E0002030BD1AB183890B43838102E09C
:100C600083898B43838170470EB501210846FFF7C6
:100C7000B3FD42F20F70019042F2CF00ADF80000D8
:100C80000020ADF80800ADF8020069464FF0804042
:100C900000F00EF801218807FFF7BAFF0122114684
:100CA0009007FFF7D8FF01218807FFF7B7FF0EBDB8
:100CB00000220288184B98420ED0184B98420BD055
:100CC000B0F1804F08D0164B984205D0154B984292
:100CD00002D0154B984204D14FF68F731A404B88BF
:100CE0001A43124B984207D0114B984204D04FF64A
:100CF000FF431A400B891A4302804B68C3620B887A
:100D00000385054B984202D0044B984201D18B7A5F
:100D100003860123838270470000014000040140E4
:100D20000004004000080040000C0040001000409B
:100D30000014004010B500F003F8FFF795FF10BD58
:100D400008B54FF4E060FFF72BFD1C208DF8000084
:100D500000208DF8010003208DF8020001208DF89D
:100D600003006846FFF7E0FC08BD00002DE9F047EE
:100D7000074689460025002600242CE004EB840069
:100D8000184901EBC000406A18B304EB84000A461E
:100D900002EBC0013846FFF737FA0546CDB104EB48
:100DA0008401104A02EBC100FFF740FAC6B22846A0
:100DB000FFF73CFA801B00F0FF08A81904EB840140
:100DC000084B03EBC1014A6A414690470120BDE848
:100DD000F087601CC4B2044800788442CEDB002057
:100DE000F5E70000800500200800002010B5002471
:100DF00040F22551164800F06CF878B1144800F024
:100E000021F91449144A127888541348007880282C
:100E100004DA11480078401C0F49087040F2244160
:100E20000B4800F056F890B10948848804880B48B4
:100E3000006848B108480078012805DD06480178B7
:100E40000448064A1268904700200349087010BD04
:100E500000100140740800204500002034000020EC
:100E600010B540F225510B4800F033F888B109481D
:100E700000F0E8F80849094A1278885407480078D1
:100E8000802804DA05480078401C0449087000F006
:100E90002BFE10BD00440040F40700203C00002061
:100EA00021B1828942F40052828104E082894DF6A8
:100EB000FF731A408281704702460020B1F5007F1F
:100EC00000D100BF13880B400BB1012000E00020CF
:100ED000704770B50246002400230025002040F62C
:100EE0006A16B14200D100BFC1F3421501F01F03E1
:100EF000012606FA03F3012D02D19689334006E05C
:100F0000022D02D1168A334001E0968A33400C123A
:100F1000012606FA04F41688344013B10CB10120FE
:100F200000E0002070BDF0B5034600240026002537
:100F3000002040F66A17B94200D100BF1846C1F33D
:100F4000421401F01F06012707FA06F5012C01D112
:100F50000C3004E0022C01D1103000E014301AB142
:100F600007682F43076002E00768AF430760F0BDE2
:100F70002DE9FF4705460E460024A14600BFA046C6
:100F8000B08900B100BF2C8A24F44054F088044397
:100F90002C82AC8941F20C608443B08831890843CB
:100FA000718908430443AC81AC8A24F44074B0894D
:100FB0000443AC826846FFF72FFC2048854202D0EC
:100FC0001F48854202D1DDF80C9001E0DDF8089061
:100FD000A88900F4004040B109EBC90000EB0910FA
:100FE00031684900B0FBF1F707E009EBC90000EBFD
:100FF000091031688900B0FBF1F76420B7FBF0F00D
:1010000004012009642101FB1078A88900F4004044
:1010100040B1322000EBC800B0FBF1F000F0070057
:10102000044308E0322000EB08106421B0FBF1F02B
:1010300000F00F0004432C81BDE8FF870010014041
:101040000014014001468888C0F308007047C1F3CE
:101050000802828070470000014800687047000065
:101060001800002000BFFEE70FB4054B10B503A920
:10107000044A029800F01BF810BC5DF814FB000055
:10108000391800086C0000200048704778000020E4
:1010900002E008C8121F08C1002AFAD17047704741
:1010A000002001E001C1121F002AFBD170472DE989
:1010B000F84F9946924688460546002706E02528BF
:1010C0000AD051464A4690476D1C7F1C287800285C
:1010D000F5D13846BDE8F88F002315F8011F1846F2
:1010E0002E2915D115F8011F04232A290DD06FF0E0
:1010F0002F022978A1F13004092C09D800EB8000D7
:1011000002EB400008446D1CF3E758F8040B6D1C1B
:101110002A78002ADDD0632A07D0732A0FD0104620
:1011200051464A4690477F1C2AE018F8042B8DF858
:10113000002000218DF801106E46012103E058F8CF
:10114000046B4FF0FF315A074FF0000401D409E05F
:10115000641C84420BDA8C42FADB325D002AF7D140
:1011600005E0641C8C42FCDB305D0028F9D127448B
:1011700004E016F8010B51464A469047641EF8D227
:101180006D1CA3E710B537480078C0B900F08EFB9E
:10119000344908700846007800B910BD314800781D
:1011A000401E314901EBC0008078304908700020B2
:1011B0002F4908604FF4FA702E4908804FE02C4800
:1011C000006818B9FFF748FF29490860FFF744FF96
:1011D00027490968401A2749098888423FD90020D1
:1011E000234908601F480078401E1F4931F830002D
:1011F000204908801B490978491E1B4A02EBC1019E
:1012000048688047D8B11948007820B1174800785D
:10121000401E164908701548007878B912481038F1
:10122000D0F8300138B1104810380021D0F8302102
:101230000C480078904700200A490870ADE70A483A
:101240001038D0F8300138B1074810380121D0F8F3
:10125000302104480078904700200249087000BF00
:101260009BE7000010000020D006002011000020A5
:101270000C0000201200002070B505460026012D4C
:101280002BDB242D29DC681E164901EBC0004068C9
:10129000F8B10C2000F03AFB04461CB912A0FFF78D
:1012A000E3FE70BD25724EB90E480C3860600168CF
:1012B000216001684C60046000BF09E009480C38F7
:1012C00041686160206041680C60446000BF00BFFD
:1012D000E7E70CA0FFF7C8FEE3E712A0FFF7C4FEA4
:1012E00000BFDEE7D0060020617420636D642073C8
:1012F00074617274206D616C6C6F63206661696CDF
:101300000D0A00000D0A3E3E3E3E6E6F742072656F
:10131000676973746572207468697320636D6420F3
:101320000D0A00000D0A3E3E3E3E6F766572207447
:101330006865206D61782073697A65206F66207416
:1013400061626C650D0A000010B50249012000F0D1
:10135000FDFC10BDC51A000870B504460D461448C2
:10136000007808281DDA2046FEF760FF064610497F
:10137000097801EB81010F4A02EBC1003246214698
:10138000FEF71EFF0A48007800EB8000094901EBD8
:10139000C000456206480078401C054908700020DE
:1013A00070BD214604A0FFF75FFE4FF0FF30F7E766
:1013B00008000020800500203E3E3E3E3E637265F0
:1013C000617465207572633A257320636F6D6D617A
:1013D0006E64206661696C65640D0A002DE9F04158
:1013E0000446002700250E488078A04201DB002C2F
:1013F00005DC0CA0FFF738FE0020BDE8F081084DA9
:10140000ED1C002607E02846FEF710FF401CC7B27F
:101410003D44701CC6B2601EB042F4DC2846ECE7C6
:101420007C0400200D0A3E3E3E3E3E696E7075749F
:1014300020726573705F6C696E65206F76657220CF
:101440007468652065786974206C696E650D0A00A2
:1014500070B504462046FEF7E9FEC5B22A4621468D
:10146000064800F090FC06A12046FEF7CDFE20B90C
:10147000022203A1014800F086FC70BD0044004038
:101480000D0A00002DE9F0470546884614461E4621
:101490004FF0000900272846FFF7DAFF01201A491C
:1014A000487017B9FFF7D8FD07461FE016480078C7
:1014B000E0B100201449087008468078A04215DB8E
:1014C0002046FFF78BFF814641464846FEF79CFECB
:1014D00040B90EA0FFF7C8FD00F0CAF84FF0FF308A
:1014E000BDE8F08700F0C4F80020F9E7FFF7B4FD8D
:1014F000C01BB042DAD329460CA0FFF7B5FD00F0BF
:10150000B7F84FF0FF30EBE77C0400200D0A3E3EB9
:101510003E3E3E7265706C79206973206E6F742058
:1015200065787065637465640D0A00000D0A3E3EBF
:101530003E3E3E25733A7265706C792074696D6524
:101540006F75740D0A0000002DE9F84F07460C4630
:1015500090461D46DDF828B04FF00009CA46002627
:101560003846FFF775FF012027494870B9F1000F91
:1015700002D1FFF771FD814636E02348007800284C
:1015800032D000202049087008468078A8422BDB22
:101590002846FFF723FF0646C4B14046FEF746FE45
:1015A0000246314600904046FEF747FE40B117A084
:1015B000FFF75AFD00F05CF84FF0FF30BDE8F88F00
:1015C0002046FEF733FE00EB060A00E0B246504626
:1015D000FEF72CFE0246514600904046FEF7F0FD15
:1015E00000F046F80020E9E7FFF736FDA0EB090020
:1015F0005845C2D339460DA0FFF736FD00F038F844
:101600004FF0FF30DAE700007C0400200D0A3E3E78
:101610003E3E3E7265706C79206973206E6F742057
:1016200065787065637465640D0A00000D0A3E3EBE
:101630003E3E3E25733A7265706C792074696D6523
:101640006F75740D0A00000070B504460D46A01CAD
:10165000FEF700FE18B901200349087003E00348B3
:101660000078FFF709FE70BD06000020050000208D
:1016700010B5002005498870087048704FF48071DB
:101680000248C01CFEF7B5FD10BD00007C04002020
:1016900070B504460E46154610480078242818DC1C
:1016A0000E480178103000EBC10086700B480178BD
:1016B000103020F8314010380178103000EBC100B4
:1016C000456006480078401C0449087008460078C8
:1016D00070BD03A0FFF7C8FC0020F9E7C00600209A
:1016E0000D0A3E3E3E3E6F76657220746865206D41
:1016F00061782073697A65206F66207461626C6519
:101700000D0A00007047000010B5FFF71DFE0948E4
:1017100000F032F900F072F9074908A0FFF71CFE4B
:101720000A490BA0FFF718FE0E490FA0FFF714FEA1
:1017300010BD000005170008951B00082B514955E6
:1017400052433A202272656376220000751B00081E
:101750002B51495552433A2022636C6F73656422C2
:1017600000000000491600082B51494F50454E3AE1
:10177000200000002DE9F84F81468A469346002656
:1017800000240027C8465546CDF800B037E01FA119
:101790004046FEF739FD0746E7B91DA14046FEF772
:1017A00033FD07461FB9701CC0B2BDE8F88F00209A
:1017B00038704046FEF73AFDC4B244B12246414675
:1017C0002846FEF7FDFC2544002005F8010B701C9F
:1017D000C0B2EAE7701CC6B2002038704046FEF77F
:1017E00025FDC4B224B1224641462846FEF7E8FC56
:1017F0002544002005F8010BA01CC4B2A0440098A9
:1018000048444045C3D83046CFE700000D0A0000E9
:101810000D00000070B504460025606850B1606896
:1018200005466068406804606068406860602846FB
:1018300000F014F870BD000070B504460D46E1B22A
:101840000548FFF704FC00BF80210348FFF734FB85
:101850000028F9D0204670BD0010014010B50028C6
:1018600021D0114B0022001F196803E0814203D8E8
:101870000A4649680029F9D152B11368841A9C427A
:1018800004D1006818441060104602E0506000E087
:10189000186039B102680B1A934203D10B681A44DD
:1018A00002604968416010BD7000002070B50024DE
:1018B000002508488168001D814209D0001F80680A
:1018C00005462C7A0348001DFFF7A4FF204670BD93
:1018D0000020FCE7C0060020FFF71EF9FEF7C4FE5B
:1018E000FFF728FA00F08CF94020064908834001F0
:1018F0000549088040000880FFF706FF01E0FFF778
:1019000041FCFCE700000240181C0240F0B50B301F
:10191000154D20F007010024144A0FE003688B42A4
:101920000BD38B4205D95E1A43184768C3E9006799
:1019300000E04368136002C004E0021D1068002844
:10194000ECD12046002802D1286808B10020F0BD63
:10195000064A07481060074A121A22F00702C0E937
:10196000002401202860D7E77400002070000020C8
:10197000FC080020F80A002001460448C0F8301195
:10198000001D0060406000BF70470000C0060020DE
:101990002DE9F04107460D460024174840780128FC
:1019A00027D14FF00008002609E01349C91C081987
:1019B000FEF73CFC401C2044C4B2701CC6B20E486A
:1019C0008078B042F1DCC4F58070A8420EDDEAB246
:1019D0000948C01C01193846FFF7CCFE804606486E
:1019E0008078404404498870012008700120BDE8D7
:1019F000F0810020FBE700007C04002010B51A4AAB
:101A0000052140F6B830FFF743FE18490870184A20
:101A1000022140F6B830FFF73BFE16490870164A1F
:101A2000092140F6B830FFF733FE14490870144A14
:101A3000012140F6B830FFF72BFE12490870124A18
:101A4000012140F6B830FFF723FE10490870104A14
:101A5000012140F6B830FFF71BFE0E49087003481D
:101A60000078FFF709FC10BD2905000800000020E0
:101A7000C903000801000020210400080200002022
:101A8000FD04000803000020AD040008040000204D
:101A90007D0400080500002010B500F031F807486B
:101AA0000068401C054908600548006820B10448EA
:101AB0000068401E0249086010BD000018000020A8
:101AC0001400002070B504460D4629462046FFF755
:101AD0004DF900B170BD29462046FFF759FF00B10E
:101AE000F8E700BFF6E70000002003490860012086
:101AF00002490870704700004000002044000020A8
:101B000010B51648007840B31548006818B9FFF7BB
:101B1000A3FA13490860FFF79FFA11490968401AB0
:101B200014281AD900200E4908600C4908700D4885
:101B300002780D490D4800F026F90D48006848B1BB
:101B400008480078012805DD064801780648084A5B
:101B50001268904700200349087010BD440000201F
:101B6000400000203C000020F4070020001001404D
:101B70003800002070B504460D4604480078FFF791
:101B80007BFB00200249087070BD000005000020AA
:101B9000060000202DE9F04705468A464FF0000870
:101BA0002C460026B14600276078303800F0FF0947
:101BB000E41C0FA12046FEF727FB064600203070EC
:101BC0002046FEF747FBC7B22046FEF72FFB801CDE
:101BD0000444002004E0215C064A1154411CC8B2B0
:101BE000B842F8DB034904A0FFF73EFABDE8F087EE
:101BF0000D0A00007C0000207265633A2025730006
:101C000000B587B001210846FEF7D6FD012110205E
:101C1000FEF7F2FD00208DF81A0001208DF81B0060
:101C200002208DF819008DF818000002059005A912
:101C30004348FEF7ACFC02208DF8180040020590E6
:101C400005A93F48FEF7A3FC07220A213C48FEF7FE
:101C5000E6FC072209213A48FEF7E1FC4FF4E130A7
:101C600001900020ADF80800ADF80A00ADF80C00B6
:101C7000ADF810000C20ADF80E0001A93148FFF7B7
:101C800077F9012240F225512E48FFF74CF9012245
:101C900040F224412B48FFF746F901212948FFF77C
:101CA000FFF801210846FEF787FD01214804FEF7F1
:101CB00093FD072203212248FEF7B1FC07220221EF
:101CC0001F48FEF7ACFC00208DF81A0001208DF8AB
:101CD0001B0002208DF818000420059002208DF8CA
:101CE000190005A91648FEF752FC02208DF81800CD
:101CF0000820059005A91248FEF749FC4FF4E13091
:101D000001900020ADF80800ADF80A00ADF80C0015
:101D1000ADF810000C20ADF80E0001A90A48FFF73D
:101D200027F9FEF7E0FC012240F225510648FFF7B3
:101D3000FAF801210448FFF7B3F807B000BD00002E
:101D4000000002400010014000440040012802D180
:101D5000034A116003E0022801D1024A1160704772
:101D6000340000203800002070B504460D46294696
:101D70002046FFF76CF900BF80212046FFF79CF852
:101D80000028F9D070BD70B506460C46154604E033
:101D900014F8011B3046FFF7E7FF281EA5F10101EB
:101DA000CDB2F5D170BD0040404040404040404081
:101DB000414141414140404040404040404040401E
:101DC000404040404040400502020202020202023E
:101DD00002020202020202202020202020202020D5
:101DE0002002020202020202909090909090101045
:101DF00010101010101010101010101010101010E3
:101E00001010020202020202888888888888080866
:101E10000808080808080808080808080808080842
:101E20000808020202024000A71D00084C1E00081C
:101E3000000000207C00000090100008C81E000870
:101E40007C0000207C0E0000A010000800000000B4
:101E50000000000000000000000000000000000082
:101E60000000000000000000000000000000000072
:101E70000000000000000000000000000000000062
:101E80000000000000000000000000000000000052
:101E900000000000007A030A0000000000000000BB
:101EA0000102030406070809000000000102030400
:101EB00001020304060708090000000000000000FA
:081EC00000000000000000001A
:040000050800018965
:00000001FF
