:020000040800F2
:10000000780C00209D010008CD0700084D0700086E
:10001000C907000835060008451100080000000067
:10002000000000000000000000000000090B0008B4
:1000300075060008000000009D080008F90B000884
:10004000B7010008B7010008B7010008B7010008B0
:10005000B7010008B7010008B7010008B7010008A0
:10006000B7010008B7010008B7010008B701000890
:10007000B7010008B7010008B7010008B701000880
:10008000B7010008B7010008B7010008B701000870
:10009000B7010008B7010008B7010008B701000860
:1000A000B7010008B7010008B7010008B701000850
:1000B000D10C0008B7010008B7010008B70100081B
:1000C000B7010008B7010008B7010008B701000830
:1000D000B7010008CD0E0008410F0008B701000865
:1000E000B7010008B7010008B7010008B701000810
:1000F000B7010008B7010008B7010008B701000800
:10010000B70100080D0A0008B7010008B701000890
:10011000B7010008B7010008B7010008B7010008DF
:10012000B7010008B7010008B70100083906000848
:10013000B7010008B7010008B7010008B7010008BF
:10014000B7010008B7010008B7010008B7010008AF
:10015000B7010008B7010008B7010008B70100089F
:10016000B7010008B7010008B7010008B70100088F
:10017000B7010008B7010008B7010008B70100087F
:10018000B7010008B7010008DFF80CD000F0A8F8AC
:1001900000480047E5190008780C00200648804711
:1001A00006480047FEE7FEE7FEE7FEE7FEE7FEE75C
:1001B000FEE7FEE7FEE7FEE7690C0008890100089C
:1001C00040EA01039B0703D009E008C9121F08C0D9
:1001D000042AFAD203E011F8013B00F8013B521E59
:1001E000F9D27047D2B201E000F8012B491EFBD2D0
:1001F00070470022F6E710B513460A460446194632
:10020000FFF7F0FF204610BD30B505462A460B46E5
:1002100012F8010B13F8014B08B1A042F8D01CB141
:10022000002802D06D1CF1E7284630BD421C10F8B2
:10023000011B0029FBD1801A704730B5044600200D
:10024000034600E05B1C934203D2E05CCD5C401BA4
:10025000F8D030BD70B5064600F086FF046805464C
:100260000A220021304600F002F82C6070BD2DE912
:10027000F04791460F4680460446002614F8015B7D
:100280002DB100F03FF80068405DC007F6D12B2D7E
:1002900002D02D2D18D0641E4A463946204600F063
:1002A00035F827B13968A14201D1C7F8008071053E
:1002B0004FF002040BD54042002803DD00F054FF4C
:1002C0000460A007BDE8F08746F48066E4E70028F4
:1002D000F8DA00F049FF04606FF00040F2E7000038
:1002E000064C074D06E0E06840F0010394E8070083
:1002F00098471034AC42F6D3FFF74AFF0C1E0008B3
:100300002C1E000800487047081E00082DE9F05F09
:1003100082460078002715468B460AF10104B9464B
:10032000302801D09DB113E014F8010B0127782883
:1003300003D0582801D045B10AE00DB1102D07D1E6
:100340000027102514F8010B02E0082500E00A251B
:100350000026B0460EE005FB080005FB06F101276C
:1003600001EB10461FFA80F8B6F5803F00D3B9467E
:1003700014F8010B294600F018F80028EBDABBF15D
:10038000000F05D00FB1641E00E05446CBF80040CA
:10039000B9F1000F06D000F0E7FE02210160C81E8F
:1003A000BDE8F09F48EA0640FAE73A2800D2303824
:1003B00020F02002412A01D3A2F13700884201D364
:1003C0004FF0FF307047000000B589B0202101A830
:1003D000FFF70FFF4FF4FA60022301AA09A1009072
:1003E0000AA001F07BF918B14FF0FF3009B000BD51
:1003F00009A101A8FFF708FF10B94FF0FF30F5E79A
:100400000020F3E72B4350494E3A000041542B4360
:1004100050494E3F00000000524541445900000041
:1004200010B50446012C04D10448007800F07AFF8E
:1004300003E00348007800F075FF10BD02000020C3
:100440000000002010B58AB0202102A8FFF7D1FEDD
:100450004FF4FA60022302AA0CA100900DA001F053
:100460003DF918B14FF0FF300AB010BD0DF10B008F
:10047000FFF7F0FE044600EBD4704010A4EB400000
:1004800010B94FF0FF30EFE70020EDE72B43524566
:10049000473A000041542B435245473F00000000BB
:1004A00010B50446012C04D10448007800F03AFF4E
:1004B00003E00348007800F035FF10BD0300002082
:1004C0000000002010B541F28833022204A105A0EB
:1004D00001F09AF810B14FF0FF3010BD0020FCE79A
:1004E0004F4B000041542B5149434C4F53453D3035
:1004F0000000000010B50446012C04D10448007827
:1005000000F010FF03E00348007800F00BFF10BD7F
:10051000030000200500002010B54FF4FA6302220A
:1005200004A105A001F070F810B14FF0FF3010BD2C
:100530000020FCE74F4B000041542B51494F5045E0
:100540004E3D312C302C22544350222C2234372E55
:100550003130362E3232312E313733222C3434338F
:100560002C302C310000000010B50446012C03D0C3
:100570000248007800F0D6FE10BD00000000002008
:1005800010B54FF4FA63022204A105A001F03CF873
:1005900010B14FF0FF3010BD0020FCE74F4B0000C2
:1005A00041542B514953544154453F0010B5044622
:1005B000012C04D10448007800F0B4FE03E00348A5
:1005C000007800F0AFFE10BD040000200500002000
:1005D00010B542F21073022204A105A001F014F834
:1005E00010B14FF0FF3010BD0020FCE74F4B000072
:1005F0004154000010B5044624B10648007800F0CC
:1006000091FE06E004A000F09FFD0948007800F08C
:1006100089FE10BD010000200D0A3E3E3E274154D8
:100620002720636D64206572726F720D0A000000EE
:100630000000002000BFFEE710B500F0FBF910BD80
:100640000246094B9A4201D2084801E00648103898
:1006500001F000531BB1064B0B40C36002E0044B9A
:100660000B4083607047000010640240006002404D
:100670007D0F7D0F7047F0B50A460021002300244E
:1006800000BF3DE0012505FA01F3156805EA030402
:100690009C4234D105684F000326BE40B543056037
:1006A00015794E00B5400668354305601579012D72
:1006B00002D01579022D16D185684F000326BE4061
:1006C000B543856055794E00B540866835438560F1
:1006D000456801268E40B5434560456896798E4051
:1006E000B6B235434560C5684F000326BE40B543EA
:1006F000C560D5794E00B540C6683543C560491C14
:100700001029BFD3F0BDF0B5002300244D07ED0E36
:1007100002FA05F3CE1000F1200555F826504E07D9
:10072000F70E0F26BE40B543CF1000F1200646F865
:100730002750CE1000F1200555F8265045EA030455
:10074000CE1000F1200545F82640F0BD00BFFEE7C1
:100750001CB50121892000F0A3F840200090012061
:100760008DF8040000208DF8060001208DF80700A8
:1007700000208DF8050069461048FFF77CFF4FF414
:100780000060009069460E48FFF775FF4FF48050F7
:10079000009069460A48FFF76EFF4FF40060009032
:1007A00069460848FFF767FF402004490883400175
:1007B000034918310880400008801CBD0000024039
:1007C000001C0240000C024000BFFEE7704708B565
:1007D0004FF4A06000F058F825208DF800000220AA
:1007E0008DF801008DF8020001208DF803006846A5
:1007F00000F00EF826208DF8000001208DF8010091
:100800008DF802008DF80300684600F001F808BD7D
:1008100070B5002100230F22C4781CB3174C246844
:1008200004F4E064C4F5E064C4F30721C1F10404F6
:10083000E3B20A4144789C40E1B2847814402143F9
:100840000C07210E0E4C05786155047804F01F0545
:100850000124AC4005786D11AD0005F1E025C5F827
:10086000004109E0047804F01F050124AC40054D67
:100870000678761145F8264070BD00000CED00E0CA
:1008800000E400E080E100E002490143024A116017
:10089000704700000000FA050CED00E07047000012
:1008A00029B1064A12680243044B1A6004E0034A65
:1008B00012688243014B1A607047000030380240D2
:1008C00029B1064A12680243044B1A6004E0034A45
:1008D00012688243014B1A607047000040380240A2
:1008E00029B1064A12680243044B1A6004E0034A25
:1008F00012688243014B1A6070470000443802407E
:10090000F0B5002100220024022500260223324FE8
:100910003F6807F00C0121B1042905D0082937D11F
:1009200005E02E4F076036E02D4F076033E02A4F79
:100930003F1F3F68C7F38056274F3F1F3F6807F0B0
:100940003F036EB1264FB7FBF3F7DFF88CC0ACF175
:10095000040CDCF800C0CCF3881C07FB0CF40CE0A2
:100960001E4FB7FBF3F7DFF870C0ACF1040CDCF8F6
:1009700000C0CCF3881C07FB0CF4174F3F1F3F68E7
:10098000C7F301477F1C7D00B4FBF5F7076002E069
:10099000124F076000BF00BF0F4F3F6807F0F00124
:1009A0000909104F7A5C0768D74047600A4F3F68D3
:1009B00007F4E051890A0B4F7A5C4768D74087609B
:1009C000054F3F6807F46041490B064F7A5C476862
:1009D000D740C760F0BD0000083802400024F40092
:1009E00000127A005800002001490860704700009A
:1009F000382C014001460020034A12680A400AB11F
:100A0000012000E000207047342C014010B500F0B8
:100A100025F810BD29B1064A12680243044B1A603A
:100A200004E0034A12688243014B1A6070470000D9
:100A30003C2C014010B50748006800F0C05040B1A0
:100A40000120054908604FF0C25102485830FFF7B5
:100A5000F7FD10BD006402402C00002010B54FF4DB
:100A60008070FFF7C7FF50B10020254908704FF490
:100A70008070FFF7B9FF01202249086037E00220AB
:100A8000FFF7B8FF30B10220FFF7AEFF02201C498C
:100A900008702CE00820FFF7ADFF30B10820FFF709
:100AA000A3FF04201649087021E02020FFF7A2FFD1
:100AB00030B12020FFF798FF06201149087016E09A
:100AC0001020FFF797FF30B11020FFF78DFF0520B2
:100AD0000B4908700BE04FF40070FFF78BFF30B14B
:100AE0004FF40070FFF780FF0720054908700021D0
:100AF0004CF23A30FFF78EFF0148007810BD00003D
:100B00002400002028000020704700000CB50020C1
:100B1000019000903448006840F480303249086009
:100B200000BF3148006800F4003000900198401C7C
:100B30000190009818B90198B0F5A04FF1D12A485A
:100B4000006800F4003010B10120009001E00020A6
:100B500000900098012846D123484030006840F0BA
:100B600080502149403108602048006840F44040EE
:100B70001E4908601C48083000681B49083108609D
:100B80000846006840F4004008600846006840F4E9
:100B9000A05008601648091F0860081F006840F050
:100BA0008070091F086000BF0F48006800F00070E7
:100BB0000028F9D040F205700E4908600A48083054
:100BC000006820F003000849083108600846006802
:100BD00040F00200086000BF03480830006800F0E1
:100BE0000C000828F8D10CBD00380240007000400D
:100BF00008544007003C024010B500F03FFF10BD14
:100C000030B5164800684FF47A72B0FBF2F1481E16
:100C1000B0F1807F01D301201BE0481E4FF0E0229D
:100C2000506150170F22002807DA13071D0E0C4BD6
:100C300000F00F04241F1D5503E013071C0E094B81
:100C40001C5400BF00204FF0E0229061072010618B
:100C5000002008B100BFFEE730BD000044000020C6
:100C600018ED00E000E400E010B51548006840F41D
:100C70007000134908601348006840F001001149F2
:100C8000086000200F49083108600E4800680E49CE
:100C900008400C4908600D48091D0860081F0068DD
:100CA00020F48020091F0860002006490C310860EC
:100CB000FFF72CFF4FF0006001498039086010BD3C
:100CC00088ED00E000380240FFFFF6FE10300024FF
:100CD00010B50121880700F021F848B105480068E7
:100CE00080F40060034908600121880700F007F8DC
:100CF00010BD0000141C0240CA4302827047CA4360
:100D00000282704721B1028842F00102028004E0B1
:100D100002884FF6FE731A400280704730B50246D3
:100D2000002000230024158A05EA0103958905EABD
:100D3000010413B10CB1012000E0002030BD1AB154
:100D400083890B43838102E083898B4383817047CE
:100D50000EB501210846FFF7B3FD42F20F70019076
:100D600042F2CF00ADF800000020ADF80800ADF869
:100D7000020069464FF0804000F00EF8012188071C
:100D8000FFF7BAFF012211469007FFF7D8FF0121B4
:100D90008807FFF7B7FF0EBD00220288184B984264
:100DA0000ED0184B98420BD0B0F1804F08D0164BA4
:100DB000984205D0154B984202D0154B984204D169
:100DC0004FF68F731A404B881A43124B984207D044
:100DD000114B984204D04FF6FF431A400B891A4337
:100DE00002804B68C3620B880385054B984202D092
:100DF000044B984201D18B7A03860123838270478A
:100E000000000140000401400004004000080040D0
:100E1000000C0040001000400014004010B500F02D
:100E200003F8FFF795FF10BD08B54FF4E060FFF73A
:100E30002BFD1C208DF8000000208DF80100032000
:100E40008DF8020001208DF803006846FFF7E0FCF2
:100E500008BD00002DE9F047074689460025002619
:100E600000242CE004EB8400174901EBC000406A29
:100E700018B304EB84000A4602EBC0013846FFF7C2
:100E8000C3F90546CDB104EB84010F4A02EBC10062
:100E9000FFF7CCF9C6B22846FFF7C8F9801B00F06F
:100EA000FF08A81904EB8401074B03EBC1014A6A50
:100EB000414690470120BDE8F087601CC4B2082C71
:100EC000D0DB0020F7E700007405002010B50024F7
:100ED00040F22551164800F06CF878B1144800F043
:100EE00021F91449144A127888541348007880284C
:100EF00004DA11480078401C0F49087040F2244180
:100F00000B4800F056F890B10948848804880B48D3
:100F1000006848B108480078012805DD06480178D6
:100F20000448064A1268904700200349087010BD23
:100F300000100140F4070020410000203000002094
:100F400010B540F225510B4800F033F888B109483C
:100F500000F0E8F80849094A1278885407480078F0
:100F6000802804DA05480078401C0449087000F025
:100F7000ABFD10BD00440040740700203800002085
:100F800021B1828942F40052828104E082894DF6C7
:100F9000FF731A408281704702460020B1F5007F3E
:100FA00000D100BF13880B400BB1012000E00020EE
:100FB000704770B50246002400230025002040F64B
:100FC0006A16B14200D100BFC1F3421501F01F0300
:100FD000012606FA03F3012D02D19689334006E07B
:100FE000022D02D1168A334001E0968A33400C125A
:100FF000012606FA04F41688344013B10CB101201E
:1010000000E0002070BDF0B5034600240026002556
:10101000002040F66A17B94200D100BF1846C1F35C
:10102000421401F01F06012707FA06F5012C01D131
:101030000C3004E0022C01D1103000E014301AB161
:1010400007682F43076002E00768AF430760F0BD01
:101050002DE9FF4705460E460024A14600BFA046E5
:10106000B08900B100BF2C8A24F44054F0880443B6
:101070002C82AC8941F20C608443B08831890843EA
:10108000718908430443AC81AC8A24F44074B0896C
:101090000443AC826846FFF733FC2048854202D007
:1010A0001F48854202D1DDF80C9001E0DDF8089080
:1010B000A88900F4004040B109EBC90000EB091019
:1010C00031684900B0FBF1F707E009EBC90000EB1C
:1010D000091031688900B0FBF1F76420B7FBF0F02C
:1010E00004012009642101FB1078A88900F4004064
:1010F00040B1322000EBC800B0FBF1F000F0070077
:10110000044308E0322000EB08106421B0FBF1F04A
:1011100000F00F0004432C81BDE8FF870010014060
:101120000014014001468888C0F308007047C1F3ED
:101130000802828070470000014800687047000084
:101140001400002000BFFEE70FB4054B10B503A943
:10115000044A029800F01BF810BC5DF814FB000074
:10116000C119000868000020004870476C0000208A
:1011700002E008C8121F08C1002AFAD17047704760
:10118000002001E001C1121F002AFBD170472DE9A8
:10119000F84F9946924688460546002706E02528DE
:1011A0000AD051464A4690476D1C7F1C287800287B
:1011B000F5D13846BDE8F88F002315F8011F184611
:1011C0002E2915D115F8011F04232A290DD06FF0FF
:1011D0002F022978A1F13004092C09D800EB8000F6
:1011E00002EB400008446D1CF3E758F8040B6D1C3B
:1011F0002A78002ADDD0632A07D0732A0FD0104640
:1012000051464A4690477F1C2AE018F8042B8DF877
:10121000002000218DF801106E46012103E058F8EE
:10122000046B4FF0FF315A074FF0000401D409E07E
:10123000641C84420BDA8C42FADB325D002AF7D15F
:1012400005E0641C8C42FCDB305D0028F9D12744AA
:1012500004E016F8010B51464A469047641EF8D246
:101260006D1CA3E710B51D4B1D4A032143F69820C2
:1012700000F0D4FA1B4908701B4B1C4A02214FF4A2
:10128000FA6000F0CBFA1A4908701A4B1A4A092181
:1012900042F2107000F0C2FA18490870184B194A4F
:1012A00001214FF4FA6000F0B9FA17490870174BA2
:1012B000174A01214FF47A7000F0B0FA154908700E
:1012C000154B164A01214FF47A7000F0A7FA144921
:1012D00008700448007800F025F810BDF5050008F6
:1012E000D10500080000002021040008C9030008FF
:1012F00001000020A10400084504000802000020AD
:10130000AD050008810500080300002069050008FC
:101310001905000804000020F5040008C5040008B1
:101320000500002010B50446012C1EDB102C1CDC2F
:10133000601E00EB40000F4901EB8000406880B167
:10134000601E0D49087001200C4908700A48007899
:1013500000EB4000074901EB8000807808490870E5
:1013600010BD08A0FFF7F0FEFAE70EA0FFF7ECFEB5
:1013700000BFF5E7B4060020080000200A000020A6
:101380000B0000200D0A3E3E3E3E6E6F74207265DB
:10139000676973746572207468697320636D642073
:1013A0000D0A00000D0A3E3E3E3E6F7665722074C7
:1013B0006865206D61782073697A65206F66207496
:1013C00061626C650D0A000010B53A48007800288B
:1013D00069D03948006818B9FFF7AEFE3649086091
:1013E000FFF7AAFE34490968411A3448007800EB37
:1013F0004000334A02EB80008078324A12789042F3
:1014000002D140F6B83006E02C48007800EB4000EE
:101410002B4A32F8200081424AD900202649086030
:101420002649097801EB4101254A02EB8101486810
:10143000804708B32348007820B122480078401E36
:10144000204908701F480078A8B900201949087081
:101450001A48007800EB4000194901EB80008068D1
:1014600048B11648007800EB40000A4602EB8000C5
:1014700081680020884710BD00200E4908700F4881
:10148000007800EB40000E4901EB8000806878B1E5
:101490000A48007800EB40000A4602EB80008168B1
:1014A0000120884704E000200649087002490860CE
:1014B00000BFE0E70A0000200C0000200800002028
:1014C000B40600200B00002010B50249022000F0F5
:1014D0002DFC10BDA91A00082DE9F04105460E4665
:1014E000002423E004EB8400144911F83000D8B93B
:1014F00004EB840001EBC000406AA8B92846FEF75F
:1015000095FE074604EB84010C4A02EBC1003A4603
:101510002946FEF755FE04EB8400084901EBC000A4
:1015200046620020BDE8F081601CC4B2082CD9DB03
:10153000294603A0FFF708FEFF20F3E7740500200B
:10154000637265617465207572633A257320636FF9
:101550006D6D616E64206661696C65640D0A0000E2
:101560002DE9F0410446002700250E488078A0426E
:1015700001DB002C05DC0CA0FFF7E6FD0020BDE838
:10158000F081084DED1C002607E02846FEF74EFED0
:10159000401CC7B23D44701CC6B2601EB042F4DCB1
:1015A0002846ECE7700400200D0A3E3E3E3E3E69B0
:1015B0006E70757420726573705F6C696E65206FF4
:1015C000766572207468652065786974206C696E30
:1015D000650D0A0070B504462046FEF727FEC5B229
:1015E0002A462146064800F0BEFB06A12046FEF72B
:1015F0000BFE20B9022203A1014800F0B4FB70BD2C
:10160000004400400D0A00002DE9F04705460E4653
:1016100014461F464FF00009C8462846FFF7DAFF78
:1016200001201E494870B8F1000F02D1FFF784FD78
:10163000804624E01948007808B300201749087054
:1016400008468078A0421ADB2046FFF789FF8146D2
:101650003046FEF7EBFD8246524649463046FEF7DD
:10166000ECFD40B10EA0FFF76FFD00F0C7F84FF0A2
:10167000FF30BDE8F08700F0C1F80020F9E7FFF780
:101680005BFDA0EB0800B842D4D329460CA0FFF7BD
:101690005BFD00F0B3F84FF0FF30EAE77004002084
:1016A0000D0A3E3E3E3E3E7265706C7920697320A5
:1016B0006E6F742065787065637465640D0A000050
:1016C0000D0A3E3E3E3E3E25733A7265706C7920AF
:1016D00074696D656F75740D0A0000002DE9F84F8F
:1016E00005460E4617461C46DDF828B04FF00008A8
:1016F000C146C2462846FFF76DFF012025494870C4
:10170000B8F1000F02D1FFF717FD804633E0214802
:10171000007800282FD000201E49087008468078E5
:10172000A04228DB2046FFF71BFF82463846FEF723
:101730007DFD0246514600903846FEF77EFD40B1E1
:1017400015A0FFF701FD00F059F84FF0FF30BDE89C
:10175000F88F3046FEF76AFD00EB0A094846FEF7AF
:1017600065FD0246494600903846FEF729FD00F027
:1017700045F80020EBE7FFF7DFFCA0EB0800584539
:10178000C5D329460CA0FFF7DFFC00F037F84FF077
:10179000FF30DCE7700400200D0A3E3E3E3E3E7204
:1017A00065706C79206973206E6F74206578706540
:1017B000637465640D0A00000D0A3E3E3E3E3E2500
:1017C000733A7265706C792074696D656F75740D0C
:1017D0000A00000070B504460D46A01CFEF73AFD55
:1017E00018B901200349087003E003480078FFF7A7
:1017F00099FD70BD060000200500002010B50020F6
:1018000005498870087048704FF480710248C01C08
:10181000FEF7EFFC10BD0000700400202DE9F04140
:1018200004460D4616461F4616480078102824DC4C
:101830001448007800EB4000134901EB80008570EC
:101840001048007800EB400021F820400D48007857
:1018500000EB400001EB800087600A48007800EB55
:10186000400001EB8000466006480078401C0549B6
:10187000087008460078BDE8F08104A0FFF764FC1A
:101880000020F8E709000020B40600200D0A3E3EC3
:101890003E3E6F76657220746865206D61782073B6
:1018A000697A65206F66207461626C650D0A0000BC
:1018B00010B5FFF709FEFFF7D5FC064906A0FFF7B4
:1018C0000BFE094909A0FFF707FE0D490DA0FFF720
:1018D00003FE10BD751B00082B51495552433A2099
:1018E0002272656376220000551B00082B51495572
:1018F00052433A2022636C6F73656422000000003B
:10190000D51700082B51494F50454E3A2000000092
:1019100010B5FFF759FD10BD2DE9F05F80468A46EE
:101920004FF0000900240026474655464046FEF782
:101930007DFC00F0FF0B39E01FA13846FEF764FC88
:101940000646E6B91DA13846FEF75EFC064616B906
:101950004846BDE8F09F002030703846FEF766FC30
:10196000C4B244B1224639462846FEF729FC254434
:10197000002005F8010B09F10100C0B2E9E709F107
:10198000010000F0FF09002030703846FEF74EFCE1
:10199000C4B224B1224639462846FEF711FC25443C
:1019A000002005F8010BA01CC4B2274408EB0B0073
:1019B000B842C1D84846CCE70D0A00000D0000002F
:1019C00070B504460D46E1B20548FFF7B0FB00BF15
:1019D00080210348FFF7E0FA0028F9D0204670BDC7
:1019E00000100140FFF70CF9FEF7B2FEFFF716FA00
:1019F00000F0F6F8FFF75CFF40200549088340013E
:101A0000044908804000088001E0FFF781FFFCE7FF
:101A100000000240181C02402DE9F04107460D4627
:101A2000002415484078012824D14FF000080026F2
:101A300009E01149C91C0819FEF7F8FB401C2044B5
:101A4000C4B2701CC6B20C488078B042F1DCC4F558
:101A50008070A8420DDD0848C01C01193846FFF708
:101A60005BFF804604488078404403498870012029
:101A7000087000BFBDE8F0817004002010B500F0D0
:101A80002FF807480068401C0549086005480068B1
:101A900020B104480068401E0249086010BD0000E3
:101AA000140000201000002070B504460D462946A1
:101AB0002046FFF7CFF900B170BD29462046FFF759
:101AC000ABFF00BFF8E700000020034908600120D9
:101AD00002490870704700003C00002040000020D0
:101AE00010B51648007840B31548006818B9FFF7DC
:101AF00023FB13490860FFF71FFB11490968401ACF
:101B000014281AD900200E4908600C4908700D48A5
:101B100002780D490D4800F026F90D48006848B1DB
:101B200008480078012805DD064801780648084A7B
:101B30001268904700200349087010BD4000002043
:101B40003C000020380000207407002000100140F5
:101B50003400002070B504460D4604480078FFF7B5
:101B6000E1FB00200249087070BD00000500002064
:101B7000060000202DE9F04705468A464FF0000890
:101B80002C460026B14600276078303800F0FF0967
:101B9000E41C0FA12046FEF737FB064600203070FC
:101BA0002046FEF757FBC7B22046FEF73FFB801CDE
:101BB0000444002004E0215C064A1154411CC8B2D0
:101BC000B842F8DB034904A0FFF7BEFABDE8F0878E
:101BD0000D0A0000700000207265633A2025730032
:101BE00000B587B001210846FEF75AFE01211020FA
:101BF000FEF776FE00208DF81A0001208DF81B00FC
:101C000002208DF819008DF818000002059005A932
:101C10004348FEF730FD02208DF818004002059081
:101C200005A93F48FEF727FD07220A213C48FEF799
:101C30006AFD072209213A48FEF765FD4FF4E130BD
:101C400001900020ADF80800ADF80A00ADF80C00D6
:101C5000ADF810000C20ADF80E0001A93148FFF7D7
:101C6000F7F9012240F225512E48FFF7CCF9012265
:101C700040F224412B48FFF7C6F901212948FFF71C
:101C80007FF901210846FEF70BFE01214804FEF70B
:101C900017FE072203212248FEF735FD0722022105
:101CA0001F48FEF730FD00208DF81A0001208DF846
:101CB0001B0002208DF818000420059002208DF8EA
:101CC000190005A91648FEF7D6FC02208DF8180069
:101CD0000820059005A91248FEF7CDFC4FF4E1302D
:101CE00001900020ADF80800ADF80A00ADF80C0036
:101CF000ADF810000C20ADF80E0001A90A48FFF75E
:101D0000A7F9FEF764FD012240F225510648FFF7CE
:101D10007AF901210448FFF733F907B000BD00004C
:101D2000000002400010014000440040012802D1A0
:101D3000034A116003E0022801D1024A1160704792
:101D4000300000203400002070B504460D462946BE
:101D50002046FFF7ECF900BF80212046FFF71CF971
:101D60000028F9D070BD70B506460C46154604E053
:101D700014F8011B3046FFF7E7FF281EA5F101010B
:101D8000CDB2F5D170BD00404040404040404040A1
:101D9000414141414140404040404040404040403E
:101DA000404040404040400502020202020202025E
:101DB00002020202020202202020202020202020F5
:101DC0002002020202020202909090909090101065
:101DD0001010101010101010101010101010101003
:101DE0001010020202020202888888888888080887
:101DF0000808080808080808080808080808080863
:101E00000808020202024000871D00082C1E00087C
:101E10000000002070000000701100089C1E0008E7
:101E200070000020080C0000801100080000000075
:101E300000000000000000000000000000000000A2
:101E40000000000000000000000000000000000092
:101E50000000000000000000000000000000000082
:101E60000000000000000000000000000000000072
:101E7000007A030A000000000000000001020304D1
:101E80000607080900000000010203040102030420
:0C1E900006070809000000000000000028
:040000050800018965
:00000001FF
